{
  "contractName": "Dex",
  "abi": [
    {
      "anonymous": false,
      "inputs": [
        {
          "indexed": true,
          "internalType": "address",
          "name": "previousOwner",
          "type": "address"
        },
        {
          "indexed": true,
          "internalType": "address",
          "name": "newOwner",
          "type": "address"
        }
      ],
      "name": "OwnershipTransferred",
      "type": "event"
    },
    {
      "inputs": [
        {
          "internalType": "bytes32",
          "name": "ticker",
          "type": "bytes32"
        },
        {
          "internalType": "address",
          "name": "tokenAddress",
          "type": "address"
        }
      ],
      "name": "addToken",
      "outputs": [],
      "stateMutability": "nonpayable",
      "type": "function"
    },
    {
      "inputs": [
        {
          "internalType": "address",
          "name": "",
          "type": "address"
        },
        {
          "internalType": "bytes32",
          "name": "",
          "type": "bytes32"
        }
      ],
      "name": "balances",
      "outputs": [
        {
          "internalType": "uint256",
          "name": "",
          "type": "uint256"
        }
      ],
      "stateMutability": "view",
      "type": "function",
      "constant": true
    },
    {
      "inputs": [
        {
          "internalType": "uint256",
          "name": "amount",
          "type": "uint256"
        },
        {
          "internalType": "bytes32",
          "name": "ticker",
          "type": "bytes32"
        }
      ],
      "name": "deposit",
      "outputs": [],
      "stateMutability": "nonpayable",
      "type": "function"
    },
    {
      "inputs": [
        {
          "internalType": "bytes32",
          "name": "",
          "type": "bytes32"
        },
        {
          "internalType": "uint256",
          "name": "",
          "type": "uint256"
        },
        {
          "internalType": "uint256",
          "name": "",
          "type": "uint256"
        }
      ],
      "name": "orderBook",
      "outputs": [
        {
          "internalType": "uint256",
          "name": "id",
          "type": "uint256"
        },
        {
          "internalType": "address",
          "name": "trader",
          "type": "address"
        },
        {
          "internalType": "bool",
          "name": "buyOrder",
          "type": "bool"
        },
        {
          "internalType": "bytes32",
          "name": "ticker",
          "type": "bytes32"
        },
        {
          "internalType": "uint256",
          "name": "amount",
          "type": "uint256"
        },
        {
          "internalType": "uint256",
          "name": "price",
          "type": "uint256"
        }
      ],
      "stateMutability": "view",
      "type": "function",
      "constant": true
    },
    {
      "inputs": [],
      "name": "owner",
      "outputs": [
        {
          "internalType": "address",
          "name": "",
          "type": "address"
        }
      ],
      "stateMutability": "view",
      "type": "function",
      "constant": true
    },
    {
      "inputs": [],
      "name": "renounceOwnership",
      "outputs": [],
      "stateMutability": "nonpayable",
      "type": "function"
    },
    {
      "inputs": [
        {
          "internalType": "uint256",
          "name": "",
          "type": "uint256"
        }
      ],
      "name": "tokenList",
      "outputs": [
        {
          "internalType": "bytes32",
          "name": "",
          "type": "bytes32"
        }
      ],
      "stateMutability": "view",
      "type": "function",
      "constant": true
    },
    {
      "inputs": [
        {
          "internalType": "bytes32",
          "name": "",
          "type": "bytes32"
        }
      ],
      "name": "tokenMapping",
      "outputs": [
        {
          "internalType": "bytes32",
          "name": "ticker",
          "type": "bytes32"
        },
        {
          "internalType": "address",
          "name": "tokenAddress",
          "type": "address"
        }
      ],
      "stateMutability": "view",
      "type": "function",
      "constant": true
    },
    {
      "inputs": [
        {
          "internalType": "address",
          "name": "newOwner",
          "type": "address"
        }
      ],
      "name": "transferOwnership",
      "outputs": [],
      "stateMutability": "nonpayable",
      "type": "function"
    },
    {
      "inputs": [
        {
          "internalType": "uint256",
          "name": "amount",
          "type": "uint256"
        },
        {
          "internalType": "bytes32",
          "name": "ticker",
          "type": "bytes32"
        }
      ],
      "name": "withdraw",
      "outputs": [],
      "stateMutability": "nonpayable",
      "type": "function"
    },
    {
      "inputs": [
        {
          "internalType": "bytes32",
          "name": "ticker",
          "type": "bytes32"
        },
        {
          "internalType": "enum Dex.Side",
          "name": "side",
          "type": "uint8"
        }
      ],
      "name": "getOrderBook",
      "outputs": [
        {
          "components": [
            {
              "internalType": "uint256",
              "name": "id",
              "type": "uint256"
            },
            {
              "internalType": "address",
              "name": "trader",
              "type": "address"
            },
            {
              "internalType": "bool",
              "name": "buyOrder",
              "type": "bool"
            },
            {
              "internalType": "bytes32",
              "name": "ticker",
              "type": "bytes32"
            },
            {
              "internalType": "uint256",
              "name": "amount",
              "type": "uint256"
            },
            {
              "internalType": "uint256",
              "name": "price",
              "type": "uint256"
            }
          ],
          "internalType": "struct Dex.Order[]",
          "name": "",
          "type": "tuple[]"
        }
      ],
      "stateMutability": "view",
      "type": "function",
      "constant": true
    },
    {
      "inputs": [
        {
          "internalType": "enum Dex.Side",
          "name": "side",
          "type": "uint8"
        },
        {
          "internalType": "bytes32",
          "name": "ticker",
          "type": "bytes32"
        },
        {
          "internalType": "uint256",
          "name": "amount",
          "type": "uint256"
        },
        {
          "internalType": "uint256",
          "name": "price",
          "type": "uint256"
        }
      ],
      "name": "createLimitOrder",
      "outputs": [],
      "stateMutability": "nonpayable",
      "type": "function"
    },
    {
      "inputs": [],
      "name": "depositEth",
      "outputs": [],
      "stateMutability": "payable",
      "type": "function",
      "payable": true
    }
  ],
  "bytecode": "0x608060405234801561001057600080fd5b5061002d61002261003260201b60201c565b61003a60201b60201c565b6100fe565b600033905090565b60008060009054906101000a900473ffffffffffffffffffffffffffffffffffffffff169050816000806101000a81548173ffffffffffffffffffffffffffffffffffffffff021916908373ffffffffffffffffffffffffffffffffffffffff1602179055508173ffffffffffffffffffffffffffffffffffffffff168173ffffffffffffffffffffffffffffffffffffffff167f8be0079c531659141344cd1fd0a4f28419497f9722a3daafe3b4186f6b6457e060405160405180910390a35050565b6118c28061010d6000396000f3fe6080604052600436106100c25760003560e01c80638da5cb5b1161007f578063a8d2021a11610059578063a8d2021a1461025f578063ba58ea6814610288578063c9630cb0146102c5578063f2fde38b146102ee576100c2565b80638da5cb5b146101ce5780639776aacf146101f95780639ead722214610222576100c2565b80630bb431b6146100c75780631f14df6914610109578063439370b114610146578063667cb4ba146101505780636f3b62f91461018e578063715018a6146101b7575b600080fd5b3480156100d357600080fd5b506100ee60048036038101906100e991906110d4565b610317565b6040516101009695949392919061156c565b60405180910390f35b34801561011557600080fd5b50610130600480360381019061012b9190610fba565b6103aa565b60405161013d9190611551565b60405180910390f35b61014e6103cf565b005b34801561015c57600080fd5b5061017760048036038101906101729190611027565b6104c8565b6040516101859291906114a8565b60405180910390f35b34801561019a57600080fd5b506101b560048036038101906101b09190611127565b61050c565b005b3480156101c357600080fd5b506101cc610512565b005b3480156101da57600080fd5b506101e361059a565b6040516101f091906113f0565b60405180910390f35b34801561020557600080fd5b50610220600480360381019061021b9190611054565b6105c3565b005b34801561022e57600080fd5b506102496004803603810190610244919061118e565b6106fe565b604051610256919061148d565b60405180910390f35b34801561026b57600080fd5b50610286600480360381019061028191906111bb565b610722565b005b34801561029457600080fd5b506102af60048036038101906102aa9190611094565b6109dc565b6040516102bc919061146b565b60405180910390f35b3480156102d157600080fd5b506102ec60048036038101906102e791906111bb565b610b0b565b005b3480156102fa57600080fd5b5061031560048036038101906103109190610f8d565b610d34565b005b6004602052826000526040600020602052816000526040600020818154811061033f57600080fd5b906000526020600020906005020160009250925050508060000154908060010160009054906101000a900473ffffffffffffffffffffffffffffffffffffffff16908060010160149054906101000a900460ff16908060020154908060030154908060040154905086565b6003602052816000526040600020602052806000526040600020600091509150505481565b600360003373ffffffffffffffffffffffffffffffffffffffff1673ffffffffffffffffffffffffffffffffffffffff16815260200190815260200160002060007f4554480000000000000000000000000000000000000000000000000000000000815260200190815260200160002054600360003373ffffffffffffffffffffffffffffffffffffffff1673ffffffffffffffffffffffffffffffffffffffff16815260200190815260200160002060007f4554480000000000000000000000000000000000000000000000000000000000815260200190815260200160002060008282546104bf9190611617565b92505081905550565b60016020528060005260406000206000915090508060000154908060010160009054906101000a900473ffffffffffffffffffffffffffffffffffffffff16905082565b50505050565b61051a610e2c565b73ffffffffffffffffffffffffffffffffffffffff1661053861059a565b73ffffffffffffffffffffffffffffffffffffffff161461058e576040517f08c379a000000000000000000000000000000000000000000000000000000000815260040161058590611511565b60405180910390fd5b6105986000610e34565b565b60008060009054906101000a900473ffffffffffffffffffffffffffffffffffffffff16905090565b6105cb610e2c565b73ffffffffffffffffffffffffffffffffffffffff166105e961059a565b73ffffffffffffffffffffffffffffffffffffffff161461063f576040517f08c379a000000000000000000000000000000000000000000000000000000000815260040161063690611511565b60405180910390fd5b60405180604001604052808381526020018273ffffffffffffffffffffffffffffffffffffffff16815250600160008481526020019081526020016000206000820151816000015560208201518160010160006101000a81548173ffffffffffffffffffffffffffffffffffffffff021916908373ffffffffffffffffffffffffffffffffffffffff16021790555090505060028290806001815401808255809150506001900390600052602060002001600090919091909150555050565b6002818154811061070e57600080fd5b906000526020600020016000915090505481565b80600073ffffffffffffffffffffffffffffffffffffffff166001600083815260200190815260200160002060010160009054906101000a900473ffffffffffffffffffffffffffffffffffffffff1673ffffffffffffffffffffffffffffffffffffffff1614156107c9576040517f08c379a00000000000000000000000000000000000000000000000000000000081526004016107c0906114d1565b60405180910390fd5b82600360003373ffffffffffffffffffffffffffffffffffffffff1673ffffffffffffffffffffffffffffffffffffffff168152602001908152602001600020600084815260200190815260200160002054101561085c576040517f08c379a000000000000000000000000000000000000000000000000000000000815260040161085390611531565b60405180910390fd5b6108bf83600360003373ffffffffffffffffffffffffffffffffffffffff1673ffffffffffffffffffffffffffffffffffffffff168152602001908152602001600020600085815260200190815260200160002054610ef890919063ffffffff16565b600360003373ffffffffffffffffffffffffffffffffffffffff1673ffffffffffffffffffffffffffffffffffffffff1681526020019081526020016000206000848152602001908152602001600020819055506001600083815260200190815260200160002060010160009054906101000a900473ffffffffffffffffffffffffffffffffffffffff1673ffffffffffffffffffffffffffffffffffffffff1663a9059cbb33856040518363ffffffff1660e01b8152600401610984929190611442565b602060405180830381600087803b15801561099e57600080fd5b505af11580156109b2573d6000803e3d6000fd5b505050506040513d601f19601f820116820180604052508101906109d69190610ffa565b50505050565b6060600460008481526020019081526020016000206000836001811115610a0657610a05611722565b5b8152602001908152602001600020805480602002602001604051908101604052809291908181526020016000905b82821015610aff57838290600052602060002090600502016040518060c0016040529081600082015481526020016001820160009054906101000a900473ffffffffffffffffffffffffffffffffffffffff1673ffffffffffffffffffffffffffffffffffffffff1673ffffffffffffffffffffffffffffffffffffffff1681526020016001820160149054906101000a900460ff16151515158152602001600282015481526020016003820154815260200160048201548152505081526020019060010190610a34565b50505050905092915050565b80600073ffffffffffffffffffffffffffffffffffffffff166001600083815260200190815260200160002060010160009054906101000a900473ffffffffffffffffffffffffffffffffffffffff1673ffffffffffffffffffffffffffffffffffffffff161415610bb2576040517f08c379a0000000000000000000000000000000000000000000000000000000008152600401610ba9906114d1565b60405180910390fd5b6001600083815260200190815260200160002060010160009054906101000a900473ffffffffffffffffffffffffffffffffffffffff1673ffffffffffffffffffffffffffffffffffffffff166323b872dd3330866040518463ffffffff1660e01b8152600401610c259392919061140b565b602060405180830381600087803b158015610c3f57600080fd5b505af1158015610c53573d6000803e3d6000fd5b505050506040513d601f19601f82011682018060405250810190610c779190610ffa565b50610cdb83600360003373ffffffffffffffffffffffffffffffffffffffff1673ffffffffffffffffffffffffffffffffffffffff168152602001908152602001600020600085815260200190815260200160002054610f0e90919063ffffffff16565b600360003373ffffffffffffffffffffffffffffffffffffffff1673ffffffffffffffffffffffffffffffffffffffff168152602001908152602001600020600084815260200190815260200160002081905550505050565b610d3c610e2c565b73ffffffffffffffffffffffffffffffffffffffff16610d5a61059a565b73ffffffffffffffffffffffffffffffffffffffff1614610db0576040517f08c379a0000000000000000000000000000000000000000000000000000000008152600401610da790611511565b60405180910390fd5b600073ffffffffffffffffffffffffffffffffffffffff168173ffffffffffffffffffffffffffffffffffffffff161415610e20576040517f08c379a0000000000000000000000000000000000000000000000000000000008152600401610e17906114f1565b60405180910390fd5b610e2981610e34565b50565b600033905090565b60008060009054906101000a900473ffffffffffffffffffffffffffffffffffffffff169050816000806101000a81548173ffffffffffffffffffffffffffffffffffffffff021916908373ffffffffffffffffffffffffffffffffffffffff1602179055508173ffffffffffffffffffffffffffffffffffffffff168173ffffffffffffffffffffffffffffffffffffffff167f8be0079c531659141344cd1fd0a4f28419497f9722a3daafe3b4186f6b6457e060405160405180910390a35050565b60008183610f06919061166d565b905092915050565b60008183610f1c9190611617565b905092915050565b600081359050610f3381611820565b92915050565b600081519050610f4881611837565b92915050565b600081359050610f5d8161184e565b92915050565b600081359050610f7281611865565b92915050565b600081359050610f8781611875565b92915050565b600060208284031215610fa357610fa2611751565b5b6000610fb184828501610f24565b91505092915050565b60008060408385031215610fd157610fd0611751565b5b6000610fdf85828601610f24565b9250506020610ff085828601610f4e565b9150509250929050565b6000602082840312156110105761100f611751565b5b600061101e84828501610f39565b91505092915050565b60006020828403121561103d5761103c611751565b5b600061104b84828501610f4e565b91505092915050565b6000806040838503121561106b5761106a611751565b5b600061107985828601610f4e565b925050602061108a85828601610f24565b9150509250929050565b600080604083850312156110ab576110aa611751565b5b60006110b985828601610f4e565b92505060206110ca85828601610f63565b9150509250929050565b6000806000606084860312156110ed576110ec611751565b5b60006110fb86828701610f4e565b935050602061110c86828701610f78565b925050604061111d86828701610f78565b9150509250925092565b6000806000806080858703121561114157611140611751565b5b600061114f87828801610f63565b945050602061116087828801610f4e565b935050604061117187828801610f78565b925050606061118287828801610f78565b91505092959194509250565b6000602082840312156111a4576111a3611751565b5b60006111b284828501610f78565b91505092915050565b600080604083850312156111d2576111d1611751565b5b60006111e085828601610f78565b92505060206111f185828601610f4e565b9150509250929050565b60006112078383611357565b60c08301905092915050565b61121c816116a1565b82525050565b61122b816116a1565b82525050565b600061123c826115dd565b61124681856115f5565b9350611251836115cd565b8060005b8381101561128257815161126988826111fb565b9750611274836115e8565b925050600181019050611255565b5085935050505092915050565b611298816116b3565b82525050565b6112a7816116b3565b82525050565b6112b6816116bf565b82525050565b6112c5816116bf565b82525050565b60006112d8601383611606565b91506112e382611756565b602082019050919050565b60006112fb602683611606565b91506113068261177f565b604082019050919050565b600061131e602083611606565b9150611329826117ce565b602082019050919050565b6000611341601483611606565b915061134c826117f7565b602082019050919050565b60c08201600082015161136d60008501826113d2565b5060208201516113806020850182611213565b506040820151611393604085018261128f565b5060608201516113a660608501826112ad565b5060808201516113b960808501826113d2565b5060a08201516113cc60a08501826113d2565b50505050565b6113db816116e9565b82525050565b6113ea816116e9565b82525050565b60006020820190506114056000830184611222565b92915050565b60006060820190506114206000830186611222565b61142d6020830185611222565b61143a60408301846113e1565b949350505050565b60006040820190506114576000830185611222565b61146460208301846113e1565b9392505050565b600060208201905081810360008301526114858184611231565b905092915050565b60006020820190506114a260008301846112bc565b92915050565b60006040820190506114bd60008301856112bc565b6114ca6020830184611222565b9392505050565b600060208201905081810360008301526114ea816112cb565b9050919050565b6000602082019050818103600083015261150a816112ee565b9050919050565b6000602082019050818103600083015261152a81611311565b9050919050565b6000602082019050818103600083015261154a81611334565b9050919050565b600060208201905061156660008301846113e1565b92915050565b600060c08201905061158160008301896113e1565b61158e6020830188611222565b61159b604083018761129e565b6115a860608301866112bc565b6115b560808301856113e1565b6115c260a08301846113e1565b979650505050505050565b6000819050602082019050919050565b600081519050919050565b6000602082019050919050565b600082825260208201905092915050565b600082825260208201905092915050565b6000611622826116e9565b915061162d836116e9565b9250827fffffffffffffffffffffffffffffffffffffffffffffffffffffffffffffffff03821115611662576116616116f3565b5b828201905092915050565b6000611678826116e9565b9150611683836116e9565b925082821015611696576116956116f3565b5b828203905092915050565b60006116ac826116c9565b9050919050565b60008115159050919050565b6000819050919050565b600073ffffffffffffffffffffffffffffffffffffffff82169050919050565b6000819050919050565b7f4e487b7100000000000000000000000000000000000000000000000000000000600052601160045260246000fd5b7f4e487b7100000000000000000000000000000000000000000000000000000000600052602160045260246000fd5b600080fd5b7f546f6b656e20646f65736e277420657869737400000000000000000000000000600082015250565b7f4f776e61626c653a206e6577206f776e657220697320746865207a65726f206160008201527f6464726573730000000000000000000000000000000000000000000000000000602082015250565b7f4f776e61626c653a2063616c6c6572206973206e6f7420746865206f776e6572600082015250565b7f696e73756666696369656e742062616c616e6365000000000000000000000000600082015250565b611829816116a1565b811461183457600080fd5b50565b611840816116b3565b811461184b57600080fd5b50565b611857816116bf565b811461186257600080fd5b50565b6002811061187257600080fd5b50565b61187e816116e9565b811461188957600080fd5b5056fea2646970667358221220cb24bb16e36700fea0abc4d5121133681b76ab8a5bf63858e5cd40406259d7b264736f6c63430008060033",
  "immutableReferences": {},
  "source": "// SPDX-License-Identifier: MIT\n\npragma solidity ^0.8.0;\npragma experimental ABIEncoderV2;\n\nimport \"./wallet.sol\";\n\ncontract Dex is Wallet {\n\n    enum Side {\n        BUY,\n        SELL\n    }\n\n    struct Order {\n        uint id;\n        address trader;\n        bool buyOrder;\n        bytes32 ticker;\n        uint amount;\n        uint price;\n    }\n\n    mapping(bytes32 => mapping(uint => Order[])) public orderBook; \n\n    function getOrderBook(bytes32 ticker, Side side) view public returns (Order[] memory){\n        return orderBook[ticker][uint(side)];\n    }\n \n    function createLimitOrder(Side side, bytes32 ticker, uint amount, uint price) public {\n\n    }\n\n    function depositEth() payable public {\n        balances[msg.sender][bytes32(\"ETH\")] += balances[msg.sender][bytes32(\"ETH\")];\n        \n    }\n\n}  \n\n    // how to call orderBook entries\n    // function getOrderBook(bytes32(\"LINK\"), Side.BUY) // Side.BUY is same as 0 as its the first enum parameter\n\n",
  "sourcePath": "/Users/imac/Nextcloud/Documents/GitHub/DEX/contracts/dex.sol",
  "compiler": {
    "name": "solc",
    "version": "0.8.6+commit.11564f7e.Emscripten.clang"
  },
  "schemaVersion": "3.3.1",
  "updatedAt": "2021-07-23T07:42:26.804Z",
  "networkType": "ethereum",
  "devdoc": {
    "kind": "dev",
    "methods": {
      "owner()": {
        "details": "Returns the address of the current owner."
      },
      "renounceOwnership()": {
        "details": "Leaves the contract without owner. It will not be possible to call `onlyOwner` functions anymore. Can only be called by the current owner. NOTE: Renouncing ownership will leave the contract without an owner, thereby removing any functionality that is only available to the owner."
      },
      "transferOwnership(address)": {
        "details": "Transfers ownership of the contract to a new account (`newOwner`). Can only be called by the current owner."
      }
    },
    "version": 1
  },
  "userdoc": {
    "kind": "user",
    "methods": {},
    "version": 1
  }
}