{
  "contractName": "Dex",
  "abi": [
    {
      "anonymous": false,
      "inputs": [
        {
          "indexed": true,
          "internalType": "address",
          "name": "previousOwner",
          "type": "address"
        },
        {
          "indexed": true,
          "internalType": "address",
          "name": "newOwner",
          "type": "address"
        }
      ],
      "name": "OwnershipTransferred",
      "type": "event"
    },
    {
      "inputs": [
        {
          "internalType": "bytes32",
          "name": "ticker",
          "type": "bytes32"
        },
        {
          "internalType": "address",
          "name": "tokenAddress",
          "type": "address"
        }
      ],
      "name": "addToken",
      "outputs": [],
      "stateMutability": "nonpayable",
      "type": "function"
    },
    {
      "inputs": [
        {
          "internalType": "address",
          "name": "",
          "type": "address"
        },
        {
          "internalType": "bytes32",
          "name": "",
          "type": "bytes32"
        }
      ],
      "name": "balances",
      "outputs": [
        {
          "internalType": "uint256",
          "name": "",
          "type": "uint256"
        }
      ],
      "stateMutability": "view",
      "type": "function",
      "constant": true
    },
    {
      "inputs": [
        {
          "internalType": "uint256",
          "name": "amount",
          "type": "uint256"
        },
        {
          "internalType": "bytes32",
          "name": "ticker",
          "type": "bytes32"
        }
      ],
      "name": "deposit",
      "outputs": [],
      "stateMutability": "nonpayable",
      "type": "function"
    },
    {
      "inputs": [],
      "name": "depositEth",
      "outputs": [],
      "stateMutability": "payable",
      "type": "function",
      "payable": true
    },
    {
      "inputs": [
        {
          "internalType": "bytes32",
          "name": "",
          "type": "bytes32"
        },
        {
          "internalType": "uint256",
          "name": "",
          "type": "uint256"
        },
        {
          "internalType": "uint256",
          "name": "",
          "type": "uint256"
        }
      ],
      "name": "orderBook",
      "outputs": [
        {
          "internalType": "uint256",
          "name": "id",
          "type": "uint256"
        },
        {
          "internalType": "address",
          "name": "trader",
          "type": "address"
        },
        {
          "internalType": "enum Dex.Side",
          "name": "side",
          "type": "uint8"
        },
        {
          "internalType": "bytes32",
          "name": "ticker",
          "type": "bytes32"
        },
        {
          "internalType": "uint256",
          "name": "amount",
          "type": "uint256"
        },
        {
          "internalType": "uint256",
          "name": "price",
          "type": "uint256"
        }
      ],
      "stateMutability": "view",
      "type": "function",
      "constant": true
    },
    {
      "inputs": [],
      "name": "owner",
      "outputs": [
        {
          "internalType": "address",
          "name": "",
          "type": "address"
        }
      ],
      "stateMutability": "view",
      "type": "function",
      "constant": true
    },
    {
      "inputs": [],
      "name": "renounceOwnership",
      "outputs": [],
      "stateMutability": "nonpayable",
      "type": "function"
    },
    {
      "inputs": [
        {
          "internalType": "uint256",
          "name": "",
          "type": "uint256"
        }
      ],
      "name": "tokenList",
      "outputs": [
        {
          "internalType": "bytes32",
          "name": "",
          "type": "bytes32"
        }
      ],
      "stateMutability": "view",
      "type": "function",
      "constant": true
    },
    {
      "inputs": [
        {
          "internalType": "bytes32",
          "name": "",
          "type": "bytes32"
        }
      ],
      "name": "tokenMapping",
      "outputs": [
        {
          "internalType": "bytes32",
          "name": "ticker",
          "type": "bytes32"
        },
        {
          "internalType": "address",
          "name": "tokenAddress",
          "type": "address"
        }
      ],
      "stateMutability": "view",
      "type": "function",
      "constant": true
    },
    {
      "inputs": [
        {
          "internalType": "address",
          "name": "newOwner",
          "type": "address"
        }
      ],
      "name": "transferOwnership",
      "outputs": [],
      "stateMutability": "nonpayable",
      "type": "function"
    },
    {
      "inputs": [
        {
          "internalType": "uint256",
          "name": "amount",
          "type": "uint256"
        },
        {
          "internalType": "bytes32",
          "name": "ticker",
          "type": "bytes32"
        }
      ],
      "name": "withdraw",
      "outputs": [],
      "stateMutability": "nonpayable",
      "type": "function"
    },
    {
      "inputs": [
        {
          "internalType": "uint256",
          "name": "amount",
          "type": "uint256"
        }
      ],
      "name": "withdrawEth",
      "outputs": [],
      "stateMutability": "nonpayable",
      "type": "function"
    },
    {
      "inputs": [
        {
          "internalType": "bytes32",
          "name": "ticker",
          "type": "bytes32"
        },
        {
          "internalType": "enum Dex.Side",
          "name": "side",
          "type": "uint8"
        }
      ],
      "name": "getOrderBook",
      "outputs": [
        {
          "components": [
            {
              "internalType": "uint256",
              "name": "id",
              "type": "uint256"
            },
            {
              "internalType": "address",
              "name": "trader",
              "type": "address"
            },
            {
              "internalType": "enum Dex.Side",
              "name": "side",
              "type": "uint8"
            },
            {
              "internalType": "bytes32",
              "name": "ticker",
              "type": "bytes32"
            },
            {
              "internalType": "uint256",
              "name": "amount",
              "type": "uint256"
            },
            {
              "internalType": "uint256",
              "name": "price",
              "type": "uint256"
            }
          ],
          "internalType": "struct Dex.Order[]",
          "name": "",
          "type": "tuple[]"
        }
      ],
      "stateMutability": "view",
      "type": "function",
      "constant": true
    },
    {
      "inputs": [
        {
          "internalType": "enum Dex.Side",
          "name": "side",
          "type": "uint8"
        },
        {
          "internalType": "bytes32",
          "name": "ticker",
          "type": "bytes32"
        },
        {
          "internalType": "uint256",
          "name": "amount",
          "type": "uint256"
        },
        {
          "internalType": "uint256",
          "name": "price",
          "type": "uint256"
        }
      ],
      "name": "createLimitOrder",
      "outputs": [],
      "stateMutability": "view",
      "type": "function",
      "constant": true
    }
  ],
  "bytecode": "0x6080604052600060045534801561001557600080fd5b5061003261002761003760201b60201c565b61003f60201b60201c565b610103565b600033905090565b60008060009054906101000a900473ffffffffffffffffffffffffffffffffffffffff169050816000806101000a81548173ffffffffffffffffffffffffffffffffffffffff021916908373ffffffffffffffffffffffffffffffffffffffff1602179055508173ffffffffffffffffffffffffffffffffffffffff168173ffffffffffffffffffffffffffffffffffffffff167f8be0079c531659141344cd1fd0a4f28419497f9722a3daafe3b4186f6b6457e060405160405180910390a35050565b611e2f806101126000396000f3fe6080604052600436106100dd5760003560e01c80639776aacf1161007f578063ba58ea6811610059578063ba58ea68146102a3578063c311d049146102e0578063c9630cb014610309578063f2fde38b14610332576100dd565b80639776aacf146102145780639ead72221461023d578063a8d2021a1461027a576100dd565b8063667cb4ba116100bb578063667cb4ba1461016b5780636f3b62f9146101a9578063715018a6146101d25780638da5cb5b146101e9576100dd565b80630bb431b6146100e25780631f14df6914610124578063439370b114610161575b600080fd5b3480156100ee57600080fd5b50610109600480360381019061010491906114d6565b61035b565b60405161011b969594939291906119f4565b60405180910390f35b34801561013057600080fd5b5061014b600480360381019061014691906113bc565b6103ee565b60405161015891906119d9565b60405180910390f35b610169610413565b005b34801561017757600080fd5b50610192600480360381019061018d9190611429565b61051e565b6040516101a09291906118f0565b60405180910390f35b3480156101b557600080fd5b506101d060048036038101906101cb9190611529565b610562565b005b3480156101de57600080fd5b506101e7610720565b005b3480156101f557600080fd5b506101fe6107a8565b60405161020b9190611838565b60405180910390f35b34801561022057600080fd5b5061023b60048036038101906102369190611456565b6107d1565b005b34801561024957600080fd5b50610264600480360381019061025f9190611590565b61090c565b60405161027191906118d5565b60405180910390f35b34801561028657600080fd5b506102a1600480360381019061029c91906115bd565b610930565b005b3480156102af57600080fd5b506102ca60048036038101906102c59190611496565b610bea565b6040516102d791906118b3565b60405180910390f35b3480156102ec57600080fd5b5061030760048036038101906103029190611590565b610d39565b005b34801561031557600080fd5b50610330600480360381019061032b91906115bd565b610ef7565b005b34801561033e57600080fd5b506103596004803603810190610354919061138f565b611120565b005b6005602052826000526040600020602052816000526040600020818154811061038357600080fd5b906000526020600020906005020160009250925050508060000154908060010160009054906101000a900473ffffffffffffffffffffffffffffffffffffffff16908060010160149054906101000a900460ff16908060020154908060030154908060040154905086565b6003602052816000526040600020602052806000526040600020600091509150505481565b61049634600360003373ffffffffffffffffffffffffffffffffffffffff1673ffffffffffffffffffffffffffffffffffffffff16815260200190815260200160002060007f455448000000000000000000000000000000000000000000000000000000000081526020019081526020016000205461121890919063ffffffff16565b600360003373ffffffffffffffffffffffffffffffffffffffff1673ffffffffffffffffffffffffffffffffffffffff16815260200190815260200160002060007f4554480000000000000000000000000000000000000000000000000000000000815260200190815260200160002060008282546105159190611a9f565b92505081905550565b60016020528060005260406000206000915090508060000154908060010160009054906101000a900473ffffffffffffffffffffffffffffffffffffffff16905082565b6000600181111561057657610575611c29565b5b84600181111561058957610588611c29565b5b1415610659576105a2818361122e90919063ffffffff16565b600360003373ffffffffffffffffffffffffffffffffffffffff1673ffffffffffffffffffffffffffffffffffffffff16815260200190815260200160002060007f45544800000000000000000000000000000000000000000000000000000000008152602001908152602001600020541015610654576040517f08c379a000000000000000000000000000000000000000000000000000000000815260040161064b906119b9565b60405180910390fd5b61071a565b60018081111561066c5761066b611c29565b5b84600181111561067f5761067e611c29565b5b14156107195781600360003373ffffffffffffffffffffffffffffffffffffffff1673ffffffffffffffffffffffffffffffffffffffff1681526020019081526020016000206000858152602001908152602001600020541015610718576040517f08c379a000000000000000000000000000000000000000000000000000000000815260040161070f906119b9565b60405180910390fd5b5b5b50505050565b610728611244565b73ffffffffffffffffffffffffffffffffffffffff166107466107a8565b73ffffffffffffffffffffffffffffffffffffffff161461079c576040517f08c379a000000000000000000000000000000000000000000000000000000000815260040161079390611979565b60405180910390fd5b6107a6600061124c565b565b60008060009054906101000a900473ffffffffffffffffffffffffffffffffffffffff16905090565b6107d9611244565b73ffffffffffffffffffffffffffffffffffffffff166107f76107a8565b73ffffffffffffffffffffffffffffffffffffffff161461084d576040517f08c379a000000000000000000000000000000000000000000000000000000000815260040161084490611979565b60405180910390fd5b60405180604001604052808381526020018273ffffffffffffffffffffffffffffffffffffffff16815250600160008481526020019081526020016000206000820151816000015560208201518160010160006101000a81548173ffffffffffffffffffffffffffffffffffffffff021916908373ffffffffffffffffffffffffffffffffffffffff16021790555090505060028290806001815401808255809150506001900390600052602060002001600090919091909150555050565b6002818154811061091c57600080fd5b906000526020600020016000915090505481565b80600073ffffffffffffffffffffffffffffffffffffffff166001600083815260200190815260200160002060010160009054906101000a900473ffffffffffffffffffffffffffffffffffffffff1673ffffffffffffffffffffffffffffffffffffffff1614156109d7576040517f08c379a00000000000000000000000000000000000000000000000000000000081526004016109ce90611919565b60405180910390fd5b82600360003373ffffffffffffffffffffffffffffffffffffffff1673ffffffffffffffffffffffffffffffffffffffff1681526020019081526020016000206000848152602001908152602001600020541015610a6a576040517f08c379a0000000000000000000000000000000000000000000000000000000008152600401610a6190611999565b60405180910390fd5b610acd83600360003373ffffffffffffffffffffffffffffffffffffffff1673ffffffffffffffffffffffffffffffffffffffff16815260200190815260200160002060008581526020019081526020016000205461131090919063ffffffff16565b600360003373ffffffffffffffffffffffffffffffffffffffff1673ffffffffffffffffffffffffffffffffffffffff1681526020019081526020016000206000848152602001908152602001600020819055506001600083815260200190815260200160002060010160009054906101000a900473ffffffffffffffffffffffffffffffffffffffff1673ffffffffffffffffffffffffffffffffffffffff1663a9059cbb33856040518363ffffffff1660e01b8152600401610b9292919061188a565b602060405180830381600087803b158015610bac57600080fd5b505af1158015610bc0573d6000803e3d6000fd5b505050506040513d601f19601f82011682018060405250810190610be491906113fc565b50505050565b6060600560008481526020019081526020016000206000836001811115610c1457610c13611c29565b5b8152602001908152602001600020805480602002602001604051908101604052809291908181526020016000905b82821015610d2d57838290600052602060002090600502016040518060c0016040529081600082015481526020016001820160009054906101000a900473ffffffffffffffffffffffffffffffffffffffff1673ffffffffffffffffffffffffffffffffffffffff1673ffffffffffffffffffffffffffffffffffffffff1681526020016001820160149054906101000a900460ff166001811115610cea57610ce9611c29565b5b6001811115610cfc57610cfb611c29565b5b8152602001600282015481526020016003820154815260200160048201548152505081526020019060010190610c42565b50505050905092915050565b80600360003373ffffffffffffffffffffffffffffffffffffffff1673ffffffffffffffffffffffffffffffffffffffff16815260200190815260200160002060007f455448000000000000000000000000000000000000000000000000000000000081526020019081526020016000205411610deb576040517f08c379a0000000000000000000000000000000000000000000000000000000008152600401610de290611939565b60405180910390fd5b610e6e81600360003373ffffffffffffffffffffffffffffffffffffffff1673ffffffffffffffffffffffffffffffffffffffff16815260200190815260200160002060007f455448000000000000000000000000000000000000000000000000000000000081526020019081526020016000205461131090919063ffffffff16565b600360003373ffffffffffffffffffffffffffffffffffffffff1673ffffffffffffffffffffffffffffffffffffffff16815260200190815260200160002060007f455448000000000000000000000000000000000000000000000000000000000081526020019081526020016000206000828254610eed9190611b4f565b9250508190555050565b80600073ffffffffffffffffffffffffffffffffffffffff166001600083815260200190815260200160002060010160009054906101000a900473ffffffffffffffffffffffffffffffffffffffff1673ffffffffffffffffffffffffffffffffffffffff161415610f9e576040517f08c379a0000000000000000000000000000000000000000000000000000000008152600401610f9590611919565b60405180910390fd5b6001600083815260200190815260200160002060010160009054906101000a900473ffffffffffffffffffffffffffffffffffffffff1673ffffffffffffffffffffffffffffffffffffffff166323b872dd3330866040518463ffffffff1660e01b815260040161101193929190611853565b602060405180830381600087803b15801561102b57600080fd5b505af115801561103f573d6000803e3d6000fd5b505050506040513d601f19601f8201168201806040525081019061106391906113fc565b506110c783600360003373ffffffffffffffffffffffffffffffffffffffff1673ffffffffffffffffffffffffffffffffffffffff16815260200190815260200160002060008581526020019081526020016000205461121890919063ffffffff16565b600360003373ffffffffffffffffffffffffffffffffffffffff1673ffffffffffffffffffffffffffffffffffffffff168152602001908152602001600020600084815260200190815260200160002081905550505050565b611128611244565b73ffffffffffffffffffffffffffffffffffffffff166111466107a8565b73ffffffffffffffffffffffffffffffffffffffff161461119c576040517f08c379a000000000000000000000000000000000000000000000000000000000815260040161119390611979565b60405180910390fd5b600073ffffffffffffffffffffffffffffffffffffffff168173ffffffffffffffffffffffffffffffffffffffff16141561120c576040517f08c379a000000000000000000000000000000000000000000000000000000000815260040161120390611959565b60405180910390fd5b6112158161124c565b50565b600081836112269190611a9f565b905092915050565b6000818361123c9190611af5565b905092915050565b600033905090565b60008060009054906101000a900473ffffffffffffffffffffffffffffffffffffffff169050816000806101000a81548173ffffffffffffffffffffffffffffffffffffffff021916908373ffffffffffffffffffffffffffffffffffffffff1602179055508173ffffffffffffffffffffffffffffffffffffffff168173ffffffffffffffffffffffffffffffffffffffff167f8be0079c531659141344cd1fd0a4f28419497f9722a3daafe3b4186f6b6457e060405160405180910390a35050565b6000818361131e9190611b4f565b905092915050565b60008135905061133581611d8d565b92915050565b60008151905061134a81611da4565b92915050565b60008135905061135f81611dbb565b92915050565b60008135905061137481611dd2565b92915050565b60008135905061138981611de2565b92915050565b6000602082840312156113a5576113a4611c58565b5b60006113b384828501611326565b91505092915050565b600080604083850312156113d3576113d2611c58565b5b60006113e185828601611326565b92505060206113f285828601611350565b9150509250929050565b60006020828403121561141257611411611c58565b5b60006114208482850161133b565b91505092915050565b60006020828403121561143f5761143e611c58565b5b600061144d84828501611350565b91505092915050565b6000806040838503121561146d5761146c611c58565b5b600061147b85828601611350565b925050602061148c85828601611326565b9150509250929050565b600080604083850312156114ad576114ac611c58565b5b60006114bb85828601611350565b92505060206114cc85828601611365565b9150509250929050565b6000806000606084860312156114ef576114ee611c58565b5b60006114fd86828701611350565b935050602061150e8682870161137a565b925050604061151f8682870161137a565b9150509250925092565b6000806000806080858703121561154357611542611c58565b5b600061155187828801611365565b945050602061156287828801611350565b93505060406115738782880161137a565b92505060606115848782880161137a565b91505092959194509250565b6000602082840312156115a6576115a5611c58565b5b60006115b48482850161137a565b91505092915050565b600080604083850312156115d4576115d3611c58565b5b60006115e28582860161137a565b92505060206115f385828601611350565b9150509250929050565b6000611609838361179f565b60c08301905092915050565b61161e81611b83565b82525050565b61162d81611b83565b82525050565b600061163e82611a65565b6116488185611a7d565b935061165383611a55565b8060005b8381101561168457815161166b88826115fd565b975061167683611a70565b925050600181019050611657565b5085935050505092915050565b61169a81611ba1565b82525050565b6116a981611ba1565b82525050565b6116b881611be8565b82525050565b6116c781611be8565b82525050565b60006116da601383611a8e565b91506116e582611c5d565b602082019050919050565b60006116fd601683611a8e565b915061170882611c86565b602082019050919050565b6000611720602683611a8e565b915061172b82611caf565b604082019050919050565b6000611743602083611a8e565b915061174e82611cfe565b602082019050919050565b6000611766601483611a8e565b915061177182611d27565b602082019050919050565b6000611789601283611a8e565b915061179482611d50565b602082019050919050565b60c0820160008201516117b5600085018261181a565b5060208201516117c86020850182611615565b5060408201516117db60408501826116af565b5060608201516117ee6060850182611691565b506080820151611801608085018261181a565b5060a082015161181460a085018261181a565b50505050565b61182381611bde565b82525050565b61183281611bde565b82525050565b600060208201905061184d6000830184611624565b92915050565b60006060820190506118686000830186611624565b6118756020830185611624565b6118826040830184611829565b949350505050565b600060408201905061189f6000830185611624565b6118ac6020830184611829565b9392505050565b600060208201905081810360008301526118cd8184611633565b905092915050565b60006020820190506118ea60008301846116a0565b92915050565b600060408201905061190560008301856116a0565b6119126020830184611624565b9392505050565b60006020820190508181036000830152611932816116cd565b9050919050565b60006020820190508181036000830152611952816116f0565b9050919050565b6000602082019050818103600083015261197281611713565b9050919050565b6000602082019050818103600083015261199281611736565b9050919050565b600060208201905081810360008301526119b281611759565b9050919050565b600060208201905081810360008301526119d28161177c565b9050919050565b60006020820190506119ee6000830184611829565b92915050565b600060c082019050611a096000830189611829565b611a166020830188611624565b611a2360408301876116be565b611a3060608301866116a0565b611a3d6080830185611829565b611a4a60a0830184611829565b979650505050505050565b6000819050602082019050919050565b600081519050919050565b6000602082019050919050565b600082825260208201905092915050565b600082825260208201905092915050565b6000611aaa82611bde565b9150611ab583611bde565b9250827fffffffffffffffffffffffffffffffffffffffffffffffffffffffffffffffff03821115611aea57611ae9611bfa565b5b828201905092915050565b6000611b0082611bde565b9150611b0b83611bde565b9250817fffffffffffffffffffffffffffffffffffffffffffffffffffffffffffffffff0483118215151615611b4457611b43611bfa565b5b828202905092915050565b6000611b5a82611bde565b9150611b6583611bde565b925082821015611b7857611b77611bfa565b5b828203905092915050565b6000611b8e82611bbe565b9050919050565b60008115159050919050565b6000819050919050565b6000819050611bb982611d79565b919050565b600073ffffffffffffffffffffffffffffffffffffffff82169050919050565b6000819050919050565b6000611bf382611bab565b9050919050565b7f4e487b7100000000000000000000000000000000000000000000000000000000600052601160045260246000fd5b7f4e487b7100000000000000000000000000000000000000000000000000000000600052602160045260246000fd5b600080fd5b7f546f6b656e20646f65736e277420657869737400000000000000000000000000600082015250565b7f6e6f7420656e6f756768204554482062616c616e636500000000000000000000600082015250565b7f4f776e61626c653a206e6577206f776e657220697320746865207a65726f206160008201527f6464726573730000000000000000000000000000000000000000000000000000602082015250565b7f4f776e61626c653a2063616c6c6572206973206e6f7420746865206f776e6572600082015250565b7f696e73756666696369656e742062616c616e6365000000000000000000000000600082015250565b7f696e73756666696369656e742066756e64730000000000000000000000000000600082015250565b60028110611d8a57611d89611c29565b5b50565b611d9681611b83565b8114611da157600080fd5b50565b611dad81611b95565b8114611db857600080fd5b50565b611dc481611ba1565b8114611dcf57600080fd5b50565b60028110611ddf57600080fd5b50565b611deb81611bde565b8114611df657600080fd5b5056fea2646970667358221220f2fdddfd16679bd9895bd18a9a20a19d103acef7340eb0ae44016e6611685a2764736f6c63430008060033",
  "immutableReferences": {},
  "source": "// SPDX-License-Identifier: MIT\n\npragma solidity ^0.8.0;\npragma experimental ABIEncoderV2;\n\nimport \"./wallet.sol\";\n\ncontract Dex is Wallet {\n\n    using SafeMath for uint256;\n\n    enum Side {\n        BUY,\n        SELL\n    }\n\n    struct Order {\n        uint id;\n        address trader;\n        Side side;\n        bytes32 ticker;\n        uint amount;\n        uint price;\n    }\n\n    uint nextOrderId = 0;\n\n    mapping(bytes32 => mapping(uint => Order[])) public orderBook; \n\n\n    function getOrderBook(bytes32 ticker, Side side) view public  returns (Order[] memory){\n        return orderBook[ticker][uint(side)];\n    }\n \n    function createLimitOrder(Side side, bytes32 ticker, uint amount, uint price) public view {\n        if(side == Side.BUY){\n            // check if user has enough ETH for buy order\n            require(balances[msg.sender][bytes32(\"ETH\")] >= amount.mul(price), \"insufficient funds\");\n        }\n        else if(side == Side.SELL){\n            // check if user has enough tokens for sell order\n            require(balances[msg.sender][ticker] >= amount, \"insufficient funds\");\n        }\n        /*\n            // this creates the order object / loads the orderbook depending on side (buy or sell)\n            Order[] storage orders = orderBook[ticker][uint(side)];\n            // this creates the new order\n            orders.push(\n                Order(nextOrderId, msg.sender, side, ticker, amount, price)\n                );\n            \n            // bubble sort\n            uint i = orders.length > 0 ? orders.length -1 : 0;\n\n            if(side == Side.BUY){\n                while (i > 0){\n                    if(orders[i - 1].price > orders[i].price) {\n                        break;\n                    }\n                    Order memory orderToMove = orders[i - 1];\n                    orders[i - 1] = orders[i];\n                    orders[i] = orderToMove;\n                    i--;\n                }\n            }\n            else if(side == Side.SELL){\n                while (i > 0){\n                    if(orders[i - 1].price < orders[i].price) {\n                        break;\n                    }\n                    Order memory orderToMove = orders[i - 1];\n                    orders[i - 1] = orders[i];\n                    orders[i] = orderToMove;\n                    i--;\n                }\n            }\n\n            nextOrderId++;\n        \n    }*/\n    } \n\n}  \n\n    // how to call orderBook entries\n    // function getOrderBook(bytes32(\"LINK\"), Side.BUY) // Side.BUY is same as 0 as its the first enum parameter\n\n",
  "sourcePath": "/Users/imac/Nextcloud/Documents/GitHub/DEX/contracts/dex.sol",
  "compiler": {
    "name": "solc",
    "version": "0.8.6+commit.11564f7e.Emscripten.clang"
  },
  "schemaVersion": "3.3.1",
  "updatedAt": "2021-07-29T08:41:00.166Z",
  "networkType": "ethereum",
  "devdoc": {
    "kind": "dev",
    "methods": {
      "owner()": {
        "details": "Returns the address of the current owner."
      },
      "renounceOwnership()": {
        "details": "Leaves the contract without owner. It will not be possible to call `onlyOwner` functions anymore. Can only be called by the current owner. NOTE: Renouncing ownership will leave the contract without an owner, thereby removing any functionality that is only available to the owner."
      },
      "transferOwnership(address)": {
        "details": "Transfers ownership of the contract to a new account (`newOwner`). Can only be called by the current owner."
      }
    },
    "version": 1
  },
  "userdoc": {
    "kind": "user",
    "methods": {},
    "version": 1
  }
}