{
  "contractName": "Dex",
  "abi": [
    {
      "anonymous": false,
      "inputs": [
        {
          "indexed": true,
          "internalType": "address",
          "name": "previousOwner",
          "type": "address"
        },
        {
          "indexed": true,
          "internalType": "address",
          "name": "newOwner",
          "type": "address"
        }
      ],
      "name": "OwnershipTransferred",
      "type": "event"
    },
    {
      "inputs": [
        {
          "internalType": "bytes32",
          "name": "ticker",
          "type": "bytes32"
        },
        {
          "internalType": "address",
          "name": "tokenAddress",
          "type": "address"
        }
      ],
      "name": "addToken",
      "outputs": [],
      "stateMutability": "nonpayable",
      "type": "function"
    },
    {
      "inputs": [
        {
          "internalType": "address",
          "name": "",
          "type": "address"
        },
        {
          "internalType": "bytes32",
          "name": "",
          "type": "bytes32"
        }
      ],
      "name": "balances",
      "outputs": [
        {
          "internalType": "uint256",
          "name": "",
          "type": "uint256"
        }
      ],
      "stateMutability": "view",
      "type": "function",
      "constant": true
    },
    {
      "inputs": [
        {
          "internalType": "uint256",
          "name": "amount",
          "type": "uint256"
        },
        {
          "internalType": "bytes32",
          "name": "ticker",
          "type": "bytes32"
        }
      ],
      "name": "deposit",
      "outputs": [],
      "stateMutability": "nonpayable",
      "type": "function"
    },
    {
      "inputs": [],
      "name": "depositEth",
      "outputs": [],
      "stateMutability": "payable",
      "type": "function",
      "payable": true
    },
    {
      "inputs": [
        {
          "internalType": "bytes32",
          "name": "",
          "type": "bytes32"
        },
        {
          "internalType": "uint256",
          "name": "",
          "type": "uint256"
        },
        {
          "internalType": "uint256",
          "name": "",
          "type": "uint256"
        }
      ],
      "name": "orderBook",
      "outputs": [
        {
          "internalType": "uint256",
          "name": "id",
          "type": "uint256"
        },
        {
          "internalType": "address",
          "name": "trader",
          "type": "address"
        },
        {
          "internalType": "enum Dex.Side",
          "name": "side",
          "type": "uint8"
        },
        {
          "internalType": "bytes32",
          "name": "ticker",
          "type": "bytes32"
        },
        {
          "internalType": "uint256",
          "name": "amount",
          "type": "uint256"
        },
        {
          "internalType": "uint256",
          "name": "price",
          "type": "uint256"
        },
        {
          "internalType": "uint256",
          "name": "filled",
          "type": "uint256"
        }
      ],
      "stateMutability": "view",
      "type": "function",
      "constant": true
    },
    {
      "inputs": [],
      "name": "owner",
      "outputs": [
        {
          "internalType": "address",
          "name": "",
          "type": "address"
        }
      ],
      "stateMutability": "view",
      "type": "function",
      "constant": true
    },
    {
      "inputs": [],
      "name": "renounceOwnership",
      "outputs": [],
      "stateMutability": "nonpayable",
      "type": "function"
    },
    {
      "inputs": [
        {
          "internalType": "uint256",
          "name": "",
          "type": "uint256"
        }
      ],
      "name": "tokenList",
      "outputs": [
        {
          "internalType": "bytes32",
          "name": "",
          "type": "bytes32"
        }
      ],
      "stateMutability": "view",
      "type": "function",
      "constant": true
    },
    {
      "inputs": [
        {
          "internalType": "bytes32",
          "name": "",
          "type": "bytes32"
        }
      ],
      "name": "tokenMapping",
      "outputs": [
        {
          "internalType": "bytes32",
          "name": "ticker",
          "type": "bytes32"
        },
        {
          "internalType": "address",
          "name": "tokenAddress",
          "type": "address"
        }
      ],
      "stateMutability": "view",
      "type": "function",
      "constant": true
    },
    {
      "inputs": [
        {
          "internalType": "address",
          "name": "newOwner",
          "type": "address"
        }
      ],
      "name": "transferOwnership",
      "outputs": [],
      "stateMutability": "nonpayable",
      "type": "function"
    },
    {
      "inputs": [
        {
          "internalType": "uint256",
          "name": "amount",
          "type": "uint256"
        },
        {
          "internalType": "bytes32",
          "name": "ticker",
          "type": "bytes32"
        }
      ],
      "name": "withdraw",
      "outputs": [],
      "stateMutability": "nonpayable",
      "type": "function"
    },
    {
      "inputs": [
        {
          "internalType": "uint256",
          "name": "amount",
          "type": "uint256"
        }
      ],
      "name": "withdrawEth",
      "outputs": [],
      "stateMutability": "nonpayable",
      "type": "function"
    },
    {
      "inputs": [
        {
          "internalType": "bytes32",
          "name": "ticker",
          "type": "bytes32"
        },
        {
          "internalType": "enum Dex.Side",
          "name": "side",
          "type": "uint8"
        }
      ],
      "name": "getOrderBook",
      "outputs": [
        {
          "components": [
            {
              "internalType": "uint256",
              "name": "id",
              "type": "uint256"
            },
            {
              "internalType": "address",
              "name": "trader",
              "type": "address"
            },
            {
              "internalType": "enum Dex.Side",
              "name": "side",
              "type": "uint8"
            },
            {
              "internalType": "bytes32",
              "name": "ticker",
              "type": "bytes32"
            },
            {
              "internalType": "uint256",
              "name": "amount",
              "type": "uint256"
            },
            {
              "internalType": "uint256",
              "name": "price",
              "type": "uint256"
            },
            {
              "internalType": "uint256",
              "name": "filled",
              "type": "uint256"
            }
          ],
          "internalType": "struct Dex.Order[]",
          "name": "",
          "type": "tuple[]"
        }
      ],
      "stateMutability": "view",
      "type": "function",
      "constant": true
    },
    {
      "inputs": [
        {
          "internalType": "enum Dex.Side",
          "name": "side",
          "type": "uint8"
        },
        {
          "internalType": "bytes32",
          "name": "ticker",
          "type": "bytes32"
        },
        {
          "internalType": "uint256",
          "name": "amount",
          "type": "uint256"
        },
        {
          "internalType": "uint256",
          "name": "price",
          "type": "uint256"
        }
      ],
      "name": "createLimitOrder",
      "outputs": [],
      "stateMutability": "nonpayable",
      "type": "function"
    },
    {
      "inputs": [
        {
          "internalType": "enum Dex.Side",
          "name": "side",
          "type": "uint8"
        },
        {
          "internalType": "bytes32",
          "name": "ticker",
          "type": "bytes32"
        },
        {
          "internalType": "uint256",
          "name": "amount",
          "type": "uint256"
        }
      ],
      "name": "createMarketOrder",
      "outputs": [],
      "stateMutability": "nonpayable",
      "type": "function"
    }
  ],
  "bytecode": "0x608060405260006004553480156200001657600080fd5b50620000376200002b6200003d60201b60201c565b6200004560201b60201c565b62000109565b600033905090565b60008060009054906101000a900473ffffffffffffffffffffffffffffffffffffffff169050816000806101000a81548173ffffffffffffffffffffffffffffffffffffffff021916908373ffffffffffffffffffffffffffffffffffffffff1602179055508173ffffffffffffffffffffffffffffffffffffffff168173ffffffffffffffffffffffffffffffffffffffff167f8be0079c531659141344cd1fd0a4f28419497f9722a3daafe3b4186f6b6457e060405160405180910390a35050565b61373680620001196000396000f3fe6080604052600436106100e85760003560e01c80639776aacf1161008a578063ba58ea6811610059578063ba58ea68146102d8578063c311d04914610315578063c9630cb01461033e578063f2fde38b14610367576100e8565b80639776aacf1461022057806399ec2f1c146102495780639ead722214610272578063a8d2021a146102af576100e8565b8063667cb4ba116100c6578063667cb4ba146101775780636f3b62f9146101b5578063715018a6146101de5780638da5cb5b146101f5576100e8565b80630bb431b6146100ed5780631f14df6914610130578063439370b11461016d575b600080fd5b3480156100f957600080fd5b50610114600480360381019061010f9190612c98565b610390565b604051610127979695949392919061321c565b60405180910390f35b34801561013c57600080fd5b5061015760048036038101906101529190612b7e565b610429565b6040516101649190613201565b60405180910390f35b61017561044e565b005b34801561018357600080fd5b5061019e60048036038101906101999190612beb565b610547565b6040516101ac929190613118565b60405180910390f35b3480156101c157600080fd5b506101dc60048036038101906101d79190612d3e565b61058b565b005b3480156101ea57600080fd5b506101f361103e565b005b34801561020157600080fd5b5061020a6110c6565b6040516102179190613060565b60405180910390f35b34801561022c57600080fd5b5061024760048036038101906102429190612c18565b6110ef565b005b34801561025557600080fd5b50610270600480360381019061026b9190612ceb565b61122a565b005b34801561027e57600080fd5b5061029960048036038101906102949190612da5565b6120c4565b6040516102a691906130fd565b60405180910390f35b3480156102bb57600080fd5b506102d660048036038101906102d19190612dd2565b6120e8565b005b3480156102e457600080fd5b506102ff60048036038101906102fa9190612c58565b6123a2565b60405161030c91906130db565b60405180910390f35b34801561032157600080fd5b5061033c60048036038101906103379190612da5565b6124fb565b005b34801561034a57600080fd5b5061036560048036038101906103609190612dd2565b6126b9565b005b34801561037357600080fd5b5061038e60048036038101906103899190612b51565b6128e2565b005b600560205282600052604060002060205281600052604060002081815481106103b857600080fd5b906000526020600020906006020160009250925050508060000154908060010160009054906101000a900473ffffffffffffffffffffffffffffffffffffffff16908060010160149054906101000a900460ff16908060020154908060030154908060040154908060050154905087565b6003602052816000526040600020602052806000526040600020600091509150505481565b6104d134600360003373ffffffffffffffffffffffffffffffffffffffff1673ffffffffffffffffffffffffffffffffffffffff16815260200190815260200160002060007f45544800000000000000000000000000000000000000000000000000000000008152602001908152602001600020546129da90919063ffffffff16565b600360003373ffffffffffffffffffffffffffffffffffffffff1673ffffffffffffffffffffffffffffffffffffffff16815260200190815260200160002060007f4554480000000000000000000000000000000000000000000000000000000000815260200190815260200160002081905550565b60016020528060005260406000206000915090508060000154908060010160009054906101000a900473ffffffffffffffffffffffffffffffffffffffff16905082565b6000600181111561059f5761059e6134d2565b5b8460018111156105b2576105b16134d2565b5b1415610682576105cb81836129f090919063ffffffff16565b600360003373ffffffffffffffffffffffffffffffffffffffff1673ffffffffffffffffffffffffffffffffffffffff16815260200190815260200160002060007f4554480000000000000000000000000000000000000000000000000000000000815260200190815260200160002054101561067d576040517f08c379a0000000000000000000000000000000000000000000000000000000008152600401610674906131e1565b60405180910390fd5b610743565b600180811115610695576106946134d2565b5b8460018111156106a8576106a76134d2565b5b14156107425781600360003373ffffffffffffffffffffffffffffffffffffffff1673ffffffffffffffffffffffffffffffffffffffff1681526020019081526020016000206000858152602001908152602001600020541015610741576040517f08c379a0000000000000000000000000000000000000000000000000000000008152600401610738906131e1565b60405180910390fd5b5b5b600060056000858152602001908152602001600020600086600181111561076d5761076c6134d2565b5b81526020019081526020016000209050806040518060e0016040528060045481526020013373ffffffffffffffffffffffffffffffffffffffff1681526020018760018111156107c0576107bf6134d2565b5b8152602001868152602001858152602001848152602001600081525090806001815401808255809150506001900390600052602060002090600602016000909190919091506000820151816000015560208201518160010160006101000a81548173ffffffffffffffffffffffffffffffffffffffff021916908373ffffffffffffffffffffffffffffffffffffffff16021790555060408201518160010160146101000a81548160ff02191690836001811115610881576108806134d2565b5b0217905550606082015181600201556080820151816003015560a0820151816004015560c0820151816005015550506000808280549050116108c45760006108d6565b600182805490506108d59190613385565b5b9050600060018111156108ec576108eb6134d2565b5b8660018111156108ff576108fe6134d2565b5b1415610c7d575b6000811115610c785781818154811061092257610921613530565b5b906000526020600020906006020160040154826001836109429190613385565b8154811061095357610952613530565b5b906000526020600020906006020160040154111561097057610c78565b6000826001836109809190613385565b8154811061099157610990613530565b5b90600052602060002090600602016040518060e0016040529081600082015481526020016001820160009054906101000a900473ffffffffffffffffffffffffffffffffffffffff1673ffffffffffffffffffffffffffffffffffffffff1673ffffffffffffffffffffffffffffffffffffffff1681526020016001820160149054906101000a900460ff166001811115610a2f57610a2e6134d2565b5b6001811115610a4157610a406134d2565b5b81526020016002820154815260200160038201548152602001600482015481526020016005820154815250509050828281548110610a8257610a81613530565b5b906000526020600020906006020183600184610a9e9190613385565b81548110610aaf57610aae613530565b5b9060005260206000209060060201600082015481600001556001820160009054906101000a900473ffffffffffffffffffffffffffffffffffffffff168160010160006101000a81548173ffffffffffffffffffffffffffffffffffffffff021916908373ffffffffffffffffffffffffffffffffffffffff1602179055506001820160149054906101000a900460ff168160010160146101000a81548160ff02191690836001811115610b6657610b656134d2565b5b02179055506002820154816002015560038201548160030155600482015481600401556005820154816005015590505080838381548110610baa57610ba9613530565b5b90600052602060002090600602016000820151816000015560208201518160010160006101000a81548173ffffffffffffffffffffffffffffffffffffffff021916908373ffffffffffffffffffffffffffffffffffffffff16021790555060408201518160010160146101000a81548160ff02191690836001811115610c3457610c336134d2565b5b0217905550606082015181600201556080820151816003015560a0820151816004015560c082015181600501559050508180610c6f90613430565b92505050610906565b61101e565b600180811115610c9057610c8f6134d2565b5b866001811115610ca357610ca26134d2565b5b141561101d575b600081111561101c57818181548110610cc657610cc5613530565b5b90600052602060002090600602016004015482600183610ce69190613385565b81548110610cf757610cf6613530565b5b9060005260206000209060060201600401541015610d145761101c565b600082600183610d249190613385565b81548110610d3557610d34613530565b5b90600052602060002090600602016040518060e0016040529081600082015481526020016001820160009054906101000a900473ffffffffffffffffffffffffffffffffffffffff1673ffffffffffffffffffffffffffffffffffffffff1673ffffffffffffffffffffffffffffffffffffffff1681526020016001820160149054906101000a900460ff166001811115610dd357610dd26134d2565b5b6001811115610de557610de46134d2565b5b81526020016002820154815260200160038201548152602001600482015481526020016005820154815250509050828281548110610e2657610e25613530565b5b906000526020600020906006020183600184610e429190613385565b81548110610e5357610e52613530565b5b9060005260206000209060060201600082015481600001556001820160009054906101000a900473ffffffffffffffffffffffffffffffffffffffff168160010160006101000a81548173ffffffffffffffffffffffffffffffffffffffff021916908373ffffffffffffffffffffffffffffffffffffffff1602179055506001820160149054906101000a900460ff168160010160146101000a81548160ff02191690836001811115610f0a57610f096134d2565b5b02179055506002820154816002015560038201548160030155600482015481600401556005820154816005015590505080838381548110610f4e57610f4d613530565b5b90600052602060002090600602016000820151816000015560208201518160010160006101000a81548173ffffffffffffffffffffffffffffffffffffffff021916908373ffffffffffffffffffffffffffffffffffffffff16021790555060408201518160010160146101000a81548160ff02191690836001811115610fd857610fd76134d2565b5b0217905550606082015181600201556080820151816003015560a0820151816004015560c08201518160050155905050818061101390613430565b92505050610caa565b5b5b600460008154809291906110319061345a565b9190505550505050505050565b611046612a06565b73ffffffffffffffffffffffffffffffffffffffff166110646110c6565b73ffffffffffffffffffffffffffffffffffffffff16146110ba576040517f08c379a00000000000000000000000000000000000000000000000000000000081526004016110b1906131a1565b60405180910390fd5b6110c46000612a0e565b565b60008060009054906101000a900473ffffffffffffffffffffffffffffffffffffffff16905090565b6110f7612a06565b73ffffffffffffffffffffffffffffffffffffffff166111156110c6565b73ffffffffffffffffffffffffffffffffffffffff161461116b576040517f08c379a0000000000000000000000000000000000000000000000000000000008152600401611162906131a1565b60405180910390fd5b60405180604001604052808381526020018273ffffffffffffffffffffffffffffffffffffffff16815250600160008481526020019081526020016000206000820151816000015560208201518160010160006101000a81548173ffffffffffffffffffffffffffffffffffffffff021916908373ffffffffffffffffffffffffffffffffffffffff16021790555090505060028290806001815401808255809150506001900390600052602060002001600090919091909150555050565b60018081111561123d5761123c6134d2565b5b8360018111156112505761124f6134d2565b5b14156112ea5780600360003373ffffffffffffffffffffffffffffffffffffffff1673ffffffffffffffffffffffffffffffffffffffff16815260200190815260200160002060008481526020019081526020016000205410156112e9576040517f08c379a00000000000000000000000000000000000000000000000000000000081526004016112e0906131c1565b60405180910390fd5b5b60008060018111156112ff576112fe6134d2565b5b846001811115611312576113116134d2565b5b14156113215760019050611326565b600090505b600060056000858152602001908152602001600020600083815260200190815260200160002090506000805b82805490508110801561136457508482105b15611e7057600061137e8387612ad290919063ffffffff16565b905060006113dd85848154811061139857611397613530565b5b9060005260206000209060060201600501548685815481106113bd576113bc613530565b5b906000526020600020906006020160030154612ad290919063ffffffff16565b90506000828211156113f1578290506113f5565b8190505b61140881866129da90919063ffffffff16565b94506114418187868154811061142157611420613530565b5b9060005260206000209060060201600501546129da90919063ffffffff16565b86858154811061145457611453613530565b5b90600052602060002090600602016005018190555060006114a287868154811061148157611480613530565b5b906000526020600020906006020160040154836129f090919063ffffffff16565b9050600060018111156114b8576114b76134d2565b5b8b60018111156114cb576114ca6134d2565b5b14156119bf5780600360003373ffffffffffffffffffffffffffffffffffffffff1673ffffffffffffffffffffffffffffffffffffffff16815260200190815260200160002060007f4554480000000000000000000000000000000000000000000000000000000000815260200190815260200160002054101561154e57600080fd5b6115d181600360003373ffffffffffffffffffffffffffffffffffffffff1673ffffffffffffffffffffffffffffffffffffffff16815260200190815260200160002060007f4554480000000000000000000000000000000000000000000000000000000000815260200190815260200160002054612ad290919063ffffffff16565b600360003373ffffffffffffffffffffffffffffffffffffffff1673ffffffffffffffffffffffffffffffffffffffff16815260200190815260200160002060007f45544800000000000000000000000000000000000000000000000000000000008152602001908152602001600020819055506116a882600360003373ffffffffffffffffffffffffffffffffffffffff1673ffffffffffffffffffffffffffffffffffffffff16815260200190815260200160002060008d8152602001908152602001600020546129da90919063ffffffff16565b600360003373ffffffffffffffffffffffffffffffffffffffff1673ffffffffffffffffffffffffffffffffffffffff16815260200190815260200160002060008c8152602001908152602001600020819055506117a382600360008a898154811061171757611716613530565b5b906000526020600020906006020160010160009054906101000a900473ffffffffffffffffffffffffffffffffffffffff1673ffffffffffffffffffffffffffffffffffffffff1673ffffffffffffffffffffffffffffffffffffffff16815260200190815260200160002060008d815260200190815260200160002054612ad290919063ffffffff16565b600360008988815481106117ba576117b9613530565b5b906000526020600020906006020160010160009054906101000a900473ffffffffffffffffffffffffffffffffffffffff1673ffffffffffffffffffffffffffffffffffffffff1673ffffffffffffffffffffffffffffffffffffffff16815260200190815260200160002060008c81526020019081526020016000208190555061190281600360008a898154811061185657611855613530565b5b906000526020600020906006020160010160009054906101000a900473ffffffffffffffffffffffffffffffffffffffff1673ffffffffffffffffffffffffffffffffffffffff1673ffffffffffffffffffffffffffffffffffffffff16815260200190815260200160002060007f45544800000000000000000000000000000000000000000000000000000000008152602001908152602001600020546129da90919063ffffffff16565b6003600089888154811061191957611918613530565b5b906000526020600020906006020160010160009054906101000a900473ffffffffffffffffffffffffffffffffffffffff1673ffffffffffffffffffffffffffffffffffffffff1673ffffffffffffffffffffffffffffffffffffffff16815260200190815260200160002060007f4554480000000000000000000000000000000000000000000000000000000000815260200190815260200160002081905550611e59565b6001808111156119d2576119d16134d2565b5b8b60018111156119e5576119e46134d2565b5b1415611e5857611a4e82600360003373ffffffffffffffffffffffffffffffffffffffff1673ffffffffffffffffffffffffffffffffffffffff16815260200190815260200160002060008d815260200190815260200160002054612ad290919063ffffffff16565b600360003373ffffffffffffffffffffffffffffffffffffffff1673ffffffffffffffffffffffffffffffffffffffff16815260200190815260200160002060008c815260200190815260200160002081905550611b2581600360003373ffffffffffffffffffffffffffffffffffffffff1673ffffffffffffffffffffffffffffffffffffffff16815260200190815260200160002060007f45544800000000000000000000000000000000000000000000000000000000008152602001908152602001600020546129da90919063ffffffff16565b600360003373ffffffffffffffffffffffffffffffffffffffff1673ffffffffffffffffffffffffffffffffffffffff16815260200190815260200160002060007f4554480000000000000000000000000000000000000000000000000000000000815260200190815260200160002081905550611c4082600360008a8981548110611bb457611bb3613530565b5b906000526020600020906006020160010160009054906101000a900473ffffffffffffffffffffffffffffffffffffffff1673ffffffffffffffffffffffffffffffffffffffff1673ffffffffffffffffffffffffffffffffffffffff16815260200190815260200160002060008d8152602001908152602001600020546129da90919063ffffffff16565b60036000898881548110611c5757611c56613530565b5b906000526020600020906006020160010160009054906101000a900473ffffffffffffffffffffffffffffffffffffffff1673ffffffffffffffffffffffffffffffffffffffff1673ffffffffffffffffffffffffffffffffffffffff16815260200190815260200160002060008c815260200190815260200160002081905550611d9f81600360008a8981548110611cf357611cf2613530565b5b906000526020600020906006020160010160009054906101000a900473ffffffffffffffffffffffffffffffffffffffff1673ffffffffffffffffffffffffffffffffffffffff1673ffffffffffffffffffffffffffffffffffffffff16815260200190815260200160002060007f4554480000000000000000000000000000000000000000000000000000000000815260200190815260200160002054612ad290919063ffffffff16565b60036000898881548110611db657611db5613530565b5b906000526020600020906006020160010160009054906101000a900473ffffffffffffffffffffffffffffffffffffffff1673ffffffffffffffffffffffffffffffffffffffff1673ffffffffffffffffffffffffffffffffffffffff16815260200190815260200160002060007f45544800000000000000000000000000000000000000000000000000000000008152602001908152602001600020819055505b5b505050508080611e689061345a565b915050611352565b505b60008280549050118015611ecf575081600081548110611e9557611e94613530565b5b90600052602060002090600602016003015482600081548110611ebb57611eba613530565b5b906000526020600020906006020160050154145b156120bc5760005b60018380549050611ee89190613385565b8110156120295782600182611efd91906132d5565b81548110611f0e57611f0d613530565b5b9060005260206000209060060201838281548110611f2f57611f2e613530565b5b9060005260206000209060060201600082015481600001556001820160009054906101000a900473ffffffffffffffffffffffffffffffffffffffff168160010160006101000a81548173ffffffffffffffffffffffffffffffffffffffff021916908373ffffffffffffffffffffffffffffffffffffffff1602179055506001820160149054906101000a900460ff168160010160146101000a81548160ff02191690836001811115611fe657611fe56134d2565b5b02179055506002820154816002015560038201548160030155600482015481600401556005820154816005015590505080806120219061345a565b915050611ed7565b508180548061203b5761203a613501565b5b60019003818190600052602060002090600602016000808201600090556001820160006101000a81549073ffffffffffffffffffffffffffffffffffffffff02191690556001820160146101000a81549060ff0219169055600282016000905560038201600090556004820160009055600582016000905550509055611e72565b505050505050565b600281815481106120d457600080fd5b906000526020600020016000915090505481565b80600073ffffffffffffffffffffffffffffffffffffffff166001600083815260200190815260200160002060010160009054906101000a900473ffffffffffffffffffffffffffffffffffffffff1673ffffffffffffffffffffffffffffffffffffffff16141561218f576040517f08c379a000000000000000000000000000000000000000000000000000000000815260040161218690613141565b60405180910390fd5b82600360003373ffffffffffffffffffffffffffffffffffffffff1673ffffffffffffffffffffffffffffffffffffffff1681526020019081526020016000206000848152602001908152602001600020541015612222576040517f08c379a0000000000000000000000000000000000000000000000000000000008152600401612219906131c1565b60405180910390fd5b61228583600360003373ffffffffffffffffffffffffffffffffffffffff1673ffffffffffffffffffffffffffffffffffffffff168152602001908152602001600020600085815260200190815260200160002054612ad290919063ffffffff16565b600360003373ffffffffffffffffffffffffffffffffffffffff1673ffffffffffffffffffffffffffffffffffffffff1681526020019081526020016000206000848152602001908152602001600020819055506001600083815260200190815260200160002060010160009054906101000a900473ffffffffffffffffffffffffffffffffffffffff1673ffffffffffffffffffffffffffffffffffffffff1663a9059cbb33856040518363ffffffff1660e01b815260040161234a9291906130b2565b602060405180830381600087803b15801561236457600080fd5b505af1158015612378573d6000803e3d6000fd5b505050506040513d601f19601f8201168201806040525081019061239c9190612bbe565b50505050565b60606005600084815260200190815260200160002060008360018111156123cc576123cb6134d2565b5b8152602001908152602001600020805480602002602001604051908101604052809291908181526020016000905b828210156124ef57838290600052602060002090600602016040518060e0016040529081600082015481526020016001820160009054906101000a900473ffffffffffffffffffffffffffffffffffffffff1673ffffffffffffffffffffffffffffffffffffffff1673ffffffffffffffffffffffffffffffffffffffff1681526020016001820160149054906101000a900460ff1660018111156124a2576124a16134d2565b5b60018111156124b4576124b36134d2565b5b8152602001600282015481526020016003820154815260200160048201548152602001600582015481525050815260200190600101906123fa565b50505050905092915050565b80600360003373ffffffffffffffffffffffffffffffffffffffff1673ffffffffffffffffffffffffffffffffffffffff16815260200190815260200160002060007f4554480000000000000000000000000000000000000000000000000000000000815260200190815260200160002054116125ad576040517f08c379a00000000000000000000000000000000000000000000000000000000081526004016125a490613161565b60405180910390fd5b61263081600360003373ffffffffffffffffffffffffffffffffffffffff1673ffffffffffffffffffffffffffffffffffffffff16815260200190815260200160002060007f4554480000000000000000000000000000000000000000000000000000000000815260200190815260200160002054612ad290919063ffffffff16565b600360003373ffffffffffffffffffffffffffffffffffffffff1673ffffffffffffffffffffffffffffffffffffffff16815260200190815260200160002060007f4554480000000000000000000000000000000000000000000000000000000000815260200190815260200160002060008282546126af9190613385565b9250508190555050565b80600073ffffffffffffffffffffffffffffffffffffffff166001600083815260200190815260200160002060010160009054906101000a900473ffffffffffffffffffffffffffffffffffffffff1673ffffffffffffffffffffffffffffffffffffffff161415612760576040517f08c379a000000000000000000000000000000000000000000000000000000000815260040161275790613141565b60405180910390fd5b6001600083815260200190815260200160002060010160009054906101000a900473ffffffffffffffffffffffffffffffffffffffff1673ffffffffffffffffffffffffffffffffffffffff166323b872dd3330866040518463ffffffff1660e01b81526004016127d39392919061307b565b602060405180830381600087803b1580156127ed57600080fd5b505af1158015612801573d6000803e3d6000fd5b505050506040513d601f19601f820116820180604052508101906128259190612bbe565b5061288983600360003373ffffffffffffffffffffffffffffffffffffffff1673ffffffffffffffffffffffffffffffffffffffff1681526020019081526020016000206000858152602001908152602001600020546129da90919063ffffffff16565b600360003373ffffffffffffffffffffffffffffffffffffffff1673ffffffffffffffffffffffffffffffffffffffff168152602001908152602001600020600084815260200190815260200160002081905550505050565b6128ea612a06565b73ffffffffffffffffffffffffffffffffffffffff166129086110c6565b73ffffffffffffffffffffffffffffffffffffffff161461295e576040517f08c379a0000000000000000000000000000000000000000000000000000000008152600401612955906131a1565b60405180910390fd5b600073ffffffffffffffffffffffffffffffffffffffff168173ffffffffffffffffffffffffffffffffffffffff1614156129ce576040517f08c379a00000000000000000000000000000000000000000000000000000000081526004016129c590613181565b60405180910390fd5b6129d781612a0e565b50565b600081836129e891906132d5565b905092915050565b600081836129fe919061332b565b905092915050565b600033905090565b60008060009054906101000a900473ffffffffffffffffffffffffffffffffffffffff169050816000806101000a81548173ffffffffffffffffffffffffffffffffffffffff021916908373ffffffffffffffffffffffffffffffffffffffff1602179055508173ffffffffffffffffffffffffffffffffffffffff168173ffffffffffffffffffffffffffffffffffffffff167f8be0079c531659141344cd1fd0a4f28419497f9722a3daafe3b4186f6b6457e060405160405180910390a35050565b60008183612ae09190613385565b905092915050565b600081359050612af781613694565b92915050565b600081519050612b0c816136ab565b92915050565b600081359050612b21816136c2565b92915050565b600081359050612b36816136d9565b92915050565b600081359050612b4b816136e9565b92915050565b600060208284031215612b6757612b6661355f565b5b6000612b7584828501612ae8565b91505092915050565b60008060408385031215612b9557612b9461355f565b5b6000612ba385828601612ae8565b9250506020612bb485828601612b12565b9150509250929050565b600060208284031215612bd457612bd361355f565b5b6000612be284828501612afd565b91505092915050565b600060208284031215612c0157612c0061355f565b5b6000612c0f84828501612b12565b91505092915050565b60008060408385031215612c2f57612c2e61355f565b5b6000612c3d85828601612b12565b9250506020612c4e85828601612ae8565b9150509250929050565b60008060408385031215612c6f57612c6e61355f565b5b6000612c7d85828601612b12565b9250506020612c8e85828601612b27565b9150509250929050565b600080600060608486031215612cb157612cb061355f565b5b6000612cbf86828701612b12565b9350506020612cd086828701612b3c565b9250506040612ce186828701612b3c565b9150509250925092565b600080600060608486031215612d0457612d0361355f565b5b6000612d1286828701612b27565b9350506020612d2386828701612b12565b9250506040612d3486828701612b3c565b9150509250925092565b60008060008060808587031215612d5857612d5761355f565b5b6000612d6687828801612b27565b9450506020612d7787828801612b12565b9350506040612d8887828801612b3c565b9250506060612d9987828801612b3c565b91505092959194509250565b600060208284031215612dbb57612dba61355f565b5b6000612dc984828501612b3c565b91505092915050565b60008060408385031215612de957612de861355f565b5b6000612df785828601612b3c565b9250506020612e0885828601612b12565b9150509250929050565b6000612e1e8383612fb4565b60e08301905092915050565b612e33816133b9565b82525050565b612e42816133b9565b82525050565b6000612e538261329b565b612e5d81856132b3565b9350612e688361328b565b8060005b83811015612e99578151612e808882612e12565b9750612e8b836132a6565b925050600181019050612e6c565b5085935050505092915050565b612eaf816133d7565b82525050565b612ebe816133d7565b82525050565b612ecd8161341e565b82525050565b612edc8161341e565b82525050565b6000612eef6013836132c4565b9150612efa82613564565b602082019050919050565b6000612f126016836132c4565b9150612f1d8261358d565b602082019050919050565b6000612f356026836132c4565b9150612f40826135b6565b604082019050919050565b6000612f586020836132c4565b9150612f6382613605565b602082019050919050565b6000612f7b6014836132c4565b9150612f868261362e565b602082019050919050565b6000612f9e6012836132c4565b9150612fa982613657565b602082019050919050565b60e082016000820151612fca6000850182613042565b506020820151612fdd6020850182612e2a565b506040820151612ff06040850182612ec4565b5060608201516130036060850182612ea6565b5060808201516130166080850182613042565b5060a082015161302960a0850182613042565b5060c082015161303c60c0850182613042565b50505050565b61304b81613414565b82525050565b61305a81613414565b82525050565b60006020820190506130756000830184612e39565b92915050565b60006060820190506130906000830186612e39565b61309d6020830185612e39565b6130aa6040830184613051565b949350505050565b60006040820190506130c76000830185612e39565b6130d46020830184613051565b9392505050565b600060208201905081810360008301526130f58184612e48565b905092915050565b60006020820190506131126000830184612eb5565b92915050565b600060408201905061312d6000830185612eb5565b61313a6020830184612e39565b9392505050565b6000602082019050818103600083015261315a81612ee2565b9050919050565b6000602082019050818103600083015261317a81612f05565b9050919050565b6000602082019050818103600083015261319a81612f28565b9050919050565b600060208201905081810360008301526131ba81612f4b565b9050919050565b600060208201905081810360008301526131da81612f6e565b9050919050565b600060208201905081810360008301526131fa81612f91565b9050919050565b60006020820190506132166000830184613051565b92915050565b600060e082019050613231600083018a613051565b61323e6020830189612e39565b61324b6040830188612ed3565b6132586060830187612eb5565b6132656080830186613051565b61327260a0830185613051565b61327f60c0830184613051565b98975050505050505050565b6000819050602082019050919050565b600081519050919050565b6000602082019050919050565b600082825260208201905092915050565b600082825260208201905092915050565b60006132e082613414565b91506132eb83613414565b9250827fffffffffffffffffffffffffffffffffffffffffffffffffffffffffffffffff038211156133205761331f6134a3565b5b828201905092915050565b600061333682613414565b915061334183613414565b9250817fffffffffffffffffffffffffffffffffffffffffffffffffffffffffffffffff048311821515161561337a576133796134a3565b5b828202905092915050565b600061339082613414565b915061339b83613414565b9250828210156133ae576133ad6134a3565b5b828203905092915050565b60006133c4826133f4565b9050919050565b60008115159050919050565b6000819050919050565b60008190506133ef82613680565b919050565b600073ffffffffffffffffffffffffffffffffffffffff82169050919050565b6000819050919050565b6000613429826133e1565b9050919050565b600061343b82613414565b9150600082141561344f5761344e6134a3565b5b600182039050919050565b600061346582613414565b91507fffffffffffffffffffffffffffffffffffffffffffffffffffffffffffffffff821415613498576134976134a3565b5b600182019050919050565b7f4e487b7100000000000000000000000000000000000000000000000000000000600052601160045260246000fd5b7f4e487b7100000000000000000000000000000000000000000000000000000000600052602160045260246000fd5b7f4e487b7100000000000000000000000000000000000000000000000000000000600052603160045260246000fd5b7f4e487b7100000000000000000000000000000000000000000000000000000000600052603260045260246000fd5b600080fd5b7f546f6b656e20646f65736e277420657869737400000000000000000000000000600082015250565b7f6e6f7420656e6f756768204554482062616c616e636500000000000000000000600082015250565b7f4f776e61626c653a206e6577206f776e657220697320746865207a65726f206160008201527f6464726573730000000000000000000000000000000000000000000000000000602082015250565b7f4f776e61626c653a2063616c6c6572206973206e6f7420746865206f776e6572600082015250565b7f696e73756666696369656e742062616c616e6365000000000000000000000000600082015250565b7f696e73756666696369656e742066756e64730000000000000000000000000000600082015250565b60028110613691576136906134d2565b5b50565b61369d816133b9565b81146136a857600080fd5b50565b6136b4816133cb565b81146136bf57600080fd5b50565b6136cb816133d7565b81146136d657600080fd5b50565b600281106136e657600080fd5b50565b6136f281613414565b81146136fd57600080fd5b5056fea264697066735822122061b10bd8aca4006b708407a16323b2cf1c1870d2e63ff1387e5028efdce39bf564736f6c63430008060033",
  "immutableReferences": {},
  "source": "// SPDX-License-Identifier: MIT\n\npragma solidity ^0.8.0;\npragma experimental ABIEncoderV2;\n\nimport \"./wallet.sol\";\n\ncontract Dex is Wallet {\n\n    using SafeMath for uint256;\n\n    enum Side {\n        BUY,\n        SELL\n    }\n\n    struct Order {\n        uint id;\n        address trader;\n        Side side;\n        bytes32 ticker;\n        uint amount;\n        uint price;\n        uint filled;\n    }\n\n    uint nextOrderId = 0;\n\n    mapping(bytes32 => mapping(uint => Order[])) public orderBook; \n\n\n    function getOrderBook(bytes32 ticker, Side side) view public returns (Order[] memory){\n        return orderBook[ticker][uint(side)];\n    }\n \n    function createLimitOrder(Side side, bytes32 ticker, uint amount, uint price) public {\n        if(side == Side.BUY){\n            // check if user has enough ETH for buy order\n            require(balances[msg.sender][bytes32(\"ETH\")] >= amount.mul(price), \"insufficient funds\");\n        }\n        else if(side == Side.SELL){\n            // check if user has enough tokens for sell order\n            require(balances[msg.sender][ticker] >= amount, \"insufficient funds\");\n        }\n        \n            // this creates the order object / loads the orderbook depending on side (buy or sell)\n            Order[] storage orders = orderBook[ticker][uint(side)];\n            // this creates the new order\n            orders.push(\n                Order(nextOrderId, msg.sender, side, ticker, amount, price, 0)\n                );\n            \n            // bubble sort\n            // start iteration at the end of the array\n            uint i = orders.length > 0 ? orders.length -1 : 0;\n\n            if(side == Side.BUY){\n                while (i > 0){\n                    if(orders[i - 1].price > orders[i].price) {\n                        break;\n                    }\n                    // using existing values and their relative positions to swap order \n                    Order memory orderToMove = orders[i - 1];\n                    orders[i - 1] = orders[i];\n                    orders[i] = orderToMove;\n                    i--;\n                }\n            }\n            else if(side == Side.SELL){\n                while (i > 0){\n                    if(orders[i - 1].price < orders[i].price) {\n                        break;\n                    }\n                    Order memory orderToMove = orders[i - 1];\n                    orders[i - 1] = orders[i];\n                    orders[i] = orderToMove;\n                    i--;\n                }\n            }\n\n            nextOrderId++;        \n    }\n\n\n    function createMarketOrder(Side side, bytes32 ticker, uint amount) public {\n        if(side == Side.SELL){\n            require(balances[msg.sender][ticker] >= amount, \"insufficient balance\");\n        }\n\n        uint orderBookSide;\n        if(side == Side.BUY){\n            orderBookSide = 1;\n        }\n        else{\n            orderBookSide = 0;\n        }\n\n        Order[] storage orders = orderBook[ticker][orderBookSide];\n\n        uint totalFilled = 0;\n\n        for (uint i = 0; i < orders.length && totalFilled < amount; i++){\n\n            uint leftToFill = amount.sub(totalFilled); // 100\n            uint availableToFill = orders[i].amount.sub(orders[i].filled); // 20\n            uint filled = 0;\n            if(availableToFill > leftToFill){\n                filled = leftToFill; // Fill the entire market order\n            }\n            else {\n                filled = availableToFill; // Fill as much as is available in order[i]\n            }\n\n            totalFilled = totalFilled.add(filled);\n            orders[i].filled = orders[i].filled.add(filled);\n            uint cost = filled.mul(orders[i].price);\n           \n\n            if(side == Side.BUY){\n                // Verify that the buyer has enough ETH to cover trade\n                require(balances[msg.sender][\"ETH\"] >= cost);\n                // msg.sender is the buyer\n                // reduce buyers' ETH-, increase buyer's token balances\n                balances[msg.sender][\"ETH\"] = balances[msg.sender][\"ETH\"].sub(cost);\n                balances[msg.sender][ticker] = balances[msg.sender][ticker].add(filled);\n                // reduce sellers' token-, increase sellers' ETH balance\n                balances[orders[i].trader][ticker] = balances[orders[i].trader][ticker].sub(filled);\n                balances[orders[i].trader][\"ETH\"] = balances[orders[i].trader][\"ETH\"].add(cost);\n            }\n            else if(side == Side.SELL){\n                // msg.sender is the seller\n                // increase sellers' ETH-, reduce seller's token balances\n                balances[msg.sender][ticker] = balances[msg.sender][ticker].sub(filled);\n                balances[msg.sender][\"ETH\"] = balances[msg.sender][\"ETH\"].add(cost);\n                // reduce buyers' ETH-, increase buyer's token balances\n                balances[orders[i].trader][ticker] = balances[orders[i].trader][ticker].add(filled);\n                balances[orders[i].trader][\"ETH\"] = balances[orders[i].trader][\"ETH\"].sub(cost);\n            }   \n    \n        }   \n\n\n            // remove all 100% filled orders from the orderbook\n            while(orders.length > 0 && orders[0].filled == orders[0].amount){\n                // remove top element in the orders array by overwriting every element with the next element in the order list\n                for(uint i = 0; i < orders.length - 1; i++){\n                    orders[i] = orders[i + 1];\n                }\n                orders.pop();\n            }\n          \n    }\n\n} \n\n",
  "sourcePath": "/Users/imac/Nextcloud/Documents/GitHub/DEX/contracts/dex.sol",
  "compiler": {
    "name": "solc",
    "version": "0.8.6+commit.11564f7e.Emscripten.clang"
  },
  "schemaVersion": "3.3.1",
  "updatedAt": "2021-08-04T16:22:55.106Z",
  "networkType": "ethereum",
  "devdoc": {
    "kind": "dev",
    "methods": {
      "owner()": {
        "details": "Returns the address of the current owner."
      },
      "renounceOwnership()": {
        "details": "Leaves the contract without owner. It will not be possible to call `onlyOwner` functions anymore. Can only be called by the current owner. NOTE: Renouncing ownership will leave the contract without an owner, thereby removing any functionality that is only available to the owner."
      },
      "transferOwnership(address)": {
        "details": "Transfers ownership of the contract to a new account (`newOwner`). Can only be called by the current owner."
      }
    },
    "version": 1
  },
  "userdoc": {
    "kind": "user",
    "methods": {},
    "version": 1
  }
}