{
  "contractName": "Dex",
  "abi": [
    {
      "anonymous": false,
      "inputs": [
        {
          "indexed": true,
          "internalType": "address",
          "name": "previousOwner",
          "type": "address"
        },
        {
          "indexed": true,
          "internalType": "address",
          "name": "newOwner",
          "type": "address"
        }
      ],
      "name": "OwnershipTransferred",
      "type": "event"
    },
    {
      "inputs": [
        {
          "internalType": "bytes32",
          "name": "ticker",
          "type": "bytes32"
        },
        {
          "internalType": "address",
          "name": "tokenAddress",
          "type": "address"
        }
      ],
      "name": "addToken",
      "outputs": [],
      "stateMutability": "nonpayable",
      "type": "function"
    },
    {
      "inputs": [
        {
          "internalType": "address",
          "name": "",
          "type": "address"
        },
        {
          "internalType": "bytes32",
          "name": "",
          "type": "bytes32"
        }
      ],
      "name": "balances",
      "outputs": [
        {
          "internalType": "uint256",
          "name": "",
          "type": "uint256"
        }
      ],
      "stateMutability": "view",
      "type": "function",
      "constant": true
    },
    {
      "inputs": [
        {
          "internalType": "uint256",
          "name": "amount",
          "type": "uint256"
        },
        {
          "internalType": "bytes32",
          "name": "ticker",
          "type": "bytes32"
        }
      ],
      "name": "deposit",
      "outputs": [],
      "stateMutability": "nonpayable",
      "type": "function"
    },
    {
      "inputs": [],
      "name": "depositEth",
      "outputs": [],
      "stateMutability": "payable",
      "type": "function",
      "payable": true
    },
    {
      "inputs": [
        {
          "internalType": "bytes32",
          "name": "",
          "type": "bytes32"
        },
        {
          "internalType": "uint256",
          "name": "",
          "type": "uint256"
        },
        {
          "internalType": "uint256",
          "name": "",
          "type": "uint256"
        }
      ],
      "name": "orderBook",
      "outputs": [
        {
          "internalType": "uint256",
          "name": "id",
          "type": "uint256"
        },
        {
          "internalType": "address",
          "name": "trader",
          "type": "address"
        },
        {
          "internalType": "enum Dex.Side",
          "name": "side",
          "type": "uint8"
        },
        {
          "internalType": "bytes32",
          "name": "ticker",
          "type": "bytes32"
        },
        {
          "internalType": "uint256",
          "name": "amount",
          "type": "uint256"
        },
        {
          "internalType": "uint256",
          "name": "price",
          "type": "uint256"
        },
        {
          "internalType": "uint256",
          "name": "filled",
          "type": "uint256"
        }
      ],
      "stateMutability": "view",
      "type": "function",
      "constant": true
    },
    {
      "inputs": [],
      "name": "owner",
      "outputs": [
        {
          "internalType": "address",
          "name": "",
          "type": "address"
        }
      ],
      "stateMutability": "view",
      "type": "function",
      "constant": true
    },
    {
      "inputs": [],
      "name": "renounceOwnership",
      "outputs": [],
      "stateMutability": "nonpayable",
      "type": "function"
    },
    {
      "inputs": [
        {
          "internalType": "uint256",
          "name": "",
          "type": "uint256"
        }
      ],
      "name": "tokenList",
      "outputs": [
        {
          "internalType": "bytes32",
          "name": "",
          "type": "bytes32"
        }
      ],
      "stateMutability": "view",
      "type": "function",
      "constant": true
    },
    {
      "inputs": [
        {
          "internalType": "bytes32",
          "name": "",
          "type": "bytes32"
        }
      ],
      "name": "tokenMapping",
      "outputs": [
        {
          "internalType": "bytes32",
          "name": "ticker",
          "type": "bytes32"
        },
        {
          "internalType": "address",
          "name": "tokenAddress",
          "type": "address"
        }
      ],
      "stateMutability": "view",
      "type": "function",
      "constant": true
    },
    {
      "inputs": [
        {
          "internalType": "address",
          "name": "newOwner",
          "type": "address"
        }
      ],
      "name": "transferOwnership",
      "outputs": [],
      "stateMutability": "nonpayable",
      "type": "function"
    },
    {
      "inputs": [
        {
          "internalType": "uint256",
          "name": "amount",
          "type": "uint256"
        },
        {
          "internalType": "bytes32",
          "name": "ticker",
          "type": "bytes32"
        }
      ],
      "name": "withdraw",
      "outputs": [],
      "stateMutability": "nonpayable",
      "type": "function"
    },
    {
      "inputs": [
        {
          "internalType": "uint256",
          "name": "amount",
          "type": "uint256"
        }
      ],
      "name": "withdrawEth",
      "outputs": [],
      "stateMutability": "nonpayable",
      "type": "function"
    },
    {
      "inputs": [
        {
          "internalType": "bytes32",
          "name": "ticker",
          "type": "bytes32"
        },
        {
          "internalType": "enum Dex.Side",
          "name": "side",
          "type": "uint8"
        }
      ],
      "name": "getOrderBook",
      "outputs": [
        {
          "components": [
            {
              "internalType": "uint256",
              "name": "id",
              "type": "uint256"
            },
            {
              "internalType": "address",
              "name": "trader",
              "type": "address"
            },
            {
              "internalType": "enum Dex.Side",
              "name": "side",
              "type": "uint8"
            },
            {
              "internalType": "bytes32",
              "name": "ticker",
              "type": "bytes32"
            },
            {
              "internalType": "uint256",
              "name": "amount",
              "type": "uint256"
            },
            {
              "internalType": "uint256",
              "name": "price",
              "type": "uint256"
            },
            {
              "internalType": "uint256",
              "name": "filled",
              "type": "uint256"
            }
          ],
          "internalType": "struct Dex.Order[]",
          "name": "",
          "type": "tuple[]"
        }
      ],
      "stateMutability": "view",
      "type": "function",
      "constant": true
    },
    {
      "inputs": [
        {
          "internalType": "enum Dex.Side",
          "name": "side",
          "type": "uint8"
        },
        {
          "internalType": "bytes32",
          "name": "ticker",
          "type": "bytes32"
        },
        {
          "internalType": "uint256",
          "name": "amount",
          "type": "uint256"
        },
        {
          "internalType": "uint256",
          "name": "price",
          "type": "uint256"
        }
      ],
      "name": "createLimitOrder",
      "outputs": [],
      "stateMutability": "nonpayable",
      "type": "function"
    },
    {
      "inputs": [
        {
          "internalType": "enum Dex.Side",
          "name": "side",
          "type": "uint8"
        },
        {
          "internalType": "bytes32",
          "name": "ticker",
          "type": "bytes32"
        },
        {
          "internalType": "uint256",
          "name": "amount",
          "type": "uint256"
        }
      ],
      "name": "createMarketOrder",
      "outputs": [],
      "stateMutability": "nonpayable",
      "type": "function"
    }
  ],
  "bytecode": "0x608060405260006004553480156200001657600080fd5b50620000376200002b6200003d60201b60201c565b6200004560201b60201c565b62000109565b600033905090565b60008060009054906101000a900473ffffffffffffffffffffffffffffffffffffffff169050816000806101000a81548173ffffffffffffffffffffffffffffffffffffffff021916908373ffffffffffffffffffffffffffffffffffffffff1602179055508173ffffffffffffffffffffffffffffffffffffffff168173ffffffffffffffffffffffffffffffffffffffff167f8be0079c531659141344cd1fd0a4f28419497f9722a3daafe3b4186f6b6457e060405160405180910390a35050565b6137e580620001196000396000f3fe6080604052600436106100e85760003560e01c80639776aacf1161008a578063ba58ea6811610059578063ba58ea68146102d8578063c311d04914610315578063c9630cb01461033e578063f2fde38b14610367576100e8565b80639776aacf1461022057806399ec2f1c146102495780639ead722214610272578063a8d2021a146102af576100e8565b8063667cb4ba116100c6578063667cb4ba146101775780636f3b62f9146101b5578063715018a6146101de5780638da5cb5b146101f5576100e8565b80630bb431b6146100ed5780631f14df6914610130578063439370b11461016d575b600080fd5b3480156100f957600080fd5b50610114600480360381019061010f9190612d01565b610390565b60405161012797969594939291906132bd565b60405180910390f35b34801561013c57600080fd5b5061015760048036038101906101529190612be7565b610429565b60405161016491906132a2565b60405180910390f35b61017561044e565b005b34801561018357600080fd5b5061019e60048036038101906101999190612c54565b610547565b6040516101ac9291906131b9565b60405180910390f35b3480156101c157600080fd5b506101dc60048036038101906101d79190612da7565b61058b565b005b3480156101ea57600080fd5b506101f361103e565b005b34801561020157600080fd5b5061020a6110c6565b6040516102179190613101565b60405180910390f35b34801561022c57600080fd5b5061024760048036038101906102429190612c81565b6110ef565b005b34801561025557600080fd5b50610270600480360381019061026b9190612d54565b61122a565b005b34801561027e57600080fd5b5061029960048036038101906102949190612e0e565b6120c4565b6040516102a6919061319e565b60405180910390f35b3480156102bb57600080fd5b506102d660048036038101906102d19190612e3b565b6120e8565b005b3480156102e457600080fd5b506102ff60048036038101906102fa9190612cc1565b6123a2565b60405161030c919061317c565b60405180910390f35b34801561032157600080fd5b5061033c60048036038101906103379190612e0e565b6124fb565b005b34801561034a57600080fd5b5061036560048036038101906103609190612e3b565b612722565b005b34801561037357600080fd5b5061038e60048036038101906103899190612bba565b61294b565b005b600560205282600052604060002060205281600052604060002081815481106103b857600080fd5b906000526020600020906006020160009250925050508060000154908060010160009054906101000a900473ffffffffffffffffffffffffffffffffffffffff16908060010160149054906101000a900460ff16908060020154908060030154908060040154908060050154905087565b6003602052816000526040600020602052806000526040600020600091509150505481565b6104d134600360003373ffffffffffffffffffffffffffffffffffffffff1673ffffffffffffffffffffffffffffffffffffffff16815260200190815260200160002060007f4554480000000000000000000000000000000000000000000000000000000000815260200190815260200160002054612a4390919063ffffffff16565b600360003373ffffffffffffffffffffffffffffffffffffffff1673ffffffffffffffffffffffffffffffffffffffff16815260200190815260200160002060007f4554480000000000000000000000000000000000000000000000000000000000815260200190815260200160002081905550565b60016020528060005260406000206000915090508060000154908060010160009054906101000a900473ffffffffffffffffffffffffffffffffffffffff16905082565b6000600181111561059f5761059e61357e565b5b8460018111156105b2576105b161357e565b5b1415610682576105cb8183612a5990919063ffffffff16565b600360003373ffffffffffffffffffffffffffffffffffffffff1673ffffffffffffffffffffffffffffffffffffffff16815260200190815260200160002060007f4554480000000000000000000000000000000000000000000000000000000000815260200190815260200160002054101561067d576040517f08c379a000000000000000000000000000000000000000000000000000000000815260040161067490613282565b60405180910390fd5b610743565b6001808111156106955761069461357e565b5b8460018111156106a8576106a761357e565b5b14156107425781600360003373ffffffffffffffffffffffffffffffffffffffff1673ffffffffffffffffffffffffffffffffffffffff1681526020019081526020016000206000858152602001908152602001600020541015610741576040517f08c379a000000000000000000000000000000000000000000000000000000000815260040161073890613282565b60405180910390fd5b5b5b600060056000858152602001908152602001600020600086600181111561076d5761076c61357e565b5b81526020019081526020016000209050806040518060e0016040528060045481526020013373ffffffffffffffffffffffffffffffffffffffff1681526020018760018111156107c0576107bf61357e565b5b8152602001868152602001858152602001848152602001600081525090806001815401808255809150506001900390600052602060002090600602016000909190919091506000820151816000015560208201518160010160006101000a81548173ffffffffffffffffffffffffffffffffffffffff021916908373ffffffffffffffffffffffffffffffffffffffff16021790555060408201518160010160146101000a81548160ff021916908360018111156108815761088061357e565b5b0217905550606082015181600201556080820151816003015560a0820151816004015560c0820151816005015550506000808280549050116108c45760006108d6565b600182805490506108d59190613431565b5b9050600060018111156108ec576108eb61357e565b5b8660018111156108ff576108fe61357e565b5b1415610c7d575b6000811115610c7857818181548110610922576109216135dc565b5b906000526020600020906006020160040154826001836109429190613431565b81548110610953576109526135dc565b5b906000526020600020906006020160040154111561097057610c78565b6000826001836109809190613431565b81548110610991576109906135dc565b5b90600052602060002090600602016040518060e0016040529081600082015481526020016001820160009054906101000a900473ffffffffffffffffffffffffffffffffffffffff1673ffffffffffffffffffffffffffffffffffffffff1673ffffffffffffffffffffffffffffffffffffffff1681526020016001820160149054906101000a900460ff166001811115610a2f57610a2e61357e565b5b6001811115610a4157610a4061357e565b5b81526020016002820154815260200160038201548152602001600482015481526020016005820154815250509050828281548110610a8257610a816135dc565b5b906000526020600020906006020183600184610a9e9190613431565b81548110610aaf57610aae6135dc565b5b9060005260206000209060060201600082015481600001556001820160009054906101000a900473ffffffffffffffffffffffffffffffffffffffff168160010160006101000a81548173ffffffffffffffffffffffffffffffffffffffff021916908373ffffffffffffffffffffffffffffffffffffffff1602179055506001820160149054906101000a900460ff168160010160146101000a81548160ff02191690836001811115610b6657610b6561357e565b5b02179055506002820154816002015560038201548160030155600482015481600401556005820154816005015590505080838381548110610baa57610ba96135dc565b5b90600052602060002090600602016000820151816000015560208201518160010160006101000a81548173ffffffffffffffffffffffffffffffffffffffff021916908373ffffffffffffffffffffffffffffffffffffffff16021790555060408201518160010160146101000a81548160ff02191690836001811115610c3457610c3361357e565b5b0217905550606082015181600201556080820151816003015560a0820151816004015560c082015181600501559050508180610c6f906134dc565b92505050610906565b61101e565b600180811115610c9057610c8f61357e565b5b866001811115610ca357610ca261357e565b5b141561101d575b600081111561101c57818181548110610cc657610cc56135dc565b5b90600052602060002090600602016004015482600183610ce69190613431565b81548110610cf757610cf66135dc565b5b9060005260206000209060060201600401541015610d145761101c565b600082600183610d249190613431565b81548110610d3557610d346135dc565b5b90600052602060002090600602016040518060e0016040529081600082015481526020016001820160009054906101000a900473ffffffffffffffffffffffffffffffffffffffff1673ffffffffffffffffffffffffffffffffffffffff1673ffffffffffffffffffffffffffffffffffffffff1681526020016001820160149054906101000a900460ff166001811115610dd357610dd261357e565b5b6001811115610de557610de461357e565b5b81526020016002820154815260200160038201548152602001600482015481526020016005820154815250509050828281548110610e2657610e256135dc565b5b906000526020600020906006020183600184610e429190613431565b81548110610e5357610e526135dc565b5b9060005260206000209060060201600082015481600001556001820160009054906101000a900473ffffffffffffffffffffffffffffffffffffffff168160010160006101000a81548173ffffffffffffffffffffffffffffffffffffffff021916908373ffffffffffffffffffffffffffffffffffffffff1602179055506001820160149054906101000a900460ff168160010160146101000a81548160ff02191690836001811115610f0a57610f0961357e565b5b02179055506002820154816002015560038201548160030155600482015481600401556005820154816005015590505080838381548110610f4e57610f4d6135dc565b5b90600052602060002090600602016000820151816000015560208201518160010160006101000a81548173ffffffffffffffffffffffffffffffffffffffff021916908373ffffffffffffffffffffffffffffffffffffffff16021790555060408201518160010160146101000a81548160ff02191690836001811115610fd857610fd761357e565b5b0217905550606082015181600201556080820151816003015560a0820151816004015560c082015181600501559050508180611013906134dc565b92505050610caa565b5b5b6004600081548092919061103190613506565b9190505550505050505050565b611046612a6f565b73ffffffffffffffffffffffffffffffffffffffff166110646110c6565b73ffffffffffffffffffffffffffffffffffffffff16146110ba576040517f08c379a00000000000000000000000000000000000000000000000000000000081526004016110b190613242565b60405180910390fd5b6110c46000612a77565b565b60008060009054906101000a900473ffffffffffffffffffffffffffffffffffffffff16905090565b6110f7612a6f565b73ffffffffffffffffffffffffffffffffffffffff166111156110c6565b73ffffffffffffffffffffffffffffffffffffffff161461116b576040517f08c379a000000000000000000000000000000000000000000000000000000000815260040161116290613242565b60405180910390fd5b60405180604001604052808381526020018273ffffffffffffffffffffffffffffffffffffffff16815250600160008481526020019081526020016000206000820151816000015560208201518160010160006101000a81548173ffffffffffffffffffffffffffffffffffffffff021916908373ffffffffffffffffffffffffffffffffffffffff16021790555090505060028290806001815401808255809150506001900390600052602060002001600090919091909150555050565b60018081111561123d5761123c61357e565b5b8360018111156112505761124f61357e565b5b14156112ea5780600360003373ffffffffffffffffffffffffffffffffffffffff1673ffffffffffffffffffffffffffffffffffffffff16815260200190815260200160002060008481526020019081526020016000205410156112e9576040517f08c379a00000000000000000000000000000000000000000000000000000000081526004016112e090613262565b60405180910390fd5b5b60008060018111156112ff576112fe61357e565b5b8460018111156113125761131161357e565b5b14156113215760019050611326565b600090505b600060056000858152602001908152602001600020600083815260200190815260200160002090506000805b82805490508110801561136457508482105b15611e7057600061137e8387612b3b90919063ffffffff16565b905060006113dd858481548110611398576113976135dc565b5b9060005260206000209060060201600501548685815481106113bd576113bc6135dc565b5b906000526020600020906006020160030154612b3b90919063ffffffff16565b90506000828211156113f1578290506113f5565b8190505b6114088186612a4390919063ffffffff16565b945061144181878681548110611421576114206135dc565b5b906000526020600020906006020160050154612a4390919063ffffffff16565b868581548110611454576114536135dc565b5b90600052602060002090600602016005018190555060006114a2878681548110611481576114806135dc565b5b90600052602060002090600602016004015483612a5990919063ffffffff16565b9050600060018111156114b8576114b761357e565b5b8b60018111156114cb576114ca61357e565b5b14156119bf5780600360003373ffffffffffffffffffffffffffffffffffffffff1673ffffffffffffffffffffffffffffffffffffffff16815260200190815260200160002060007f4554480000000000000000000000000000000000000000000000000000000000815260200190815260200160002054101561154e57600080fd5b6115d181600360003373ffffffffffffffffffffffffffffffffffffffff1673ffffffffffffffffffffffffffffffffffffffff16815260200190815260200160002060007f4554480000000000000000000000000000000000000000000000000000000000815260200190815260200160002054612b3b90919063ffffffff16565b600360003373ffffffffffffffffffffffffffffffffffffffff1673ffffffffffffffffffffffffffffffffffffffff16815260200190815260200160002060007f45544800000000000000000000000000000000000000000000000000000000008152602001908152602001600020819055506116a882600360003373ffffffffffffffffffffffffffffffffffffffff1673ffffffffffffffffffffffffffffffffffffffff16815260200190815260200160002060008d815260200190815260200160002054612a4390919063ffffffff16565b600360003373ffffffffffffffffffffffffffffffffffffffff1673ffffffffffffffffffffffffffffffffffffffff16815260200190815260200160002060008c8152602001908152602001600020819055506117a382600360008a8981548110611717576117166135dc565b5b906000526020600020906006020160010160009054906101000a900473ffffffffffffffffffffffffffffffffffffffff1673ffffffffffffffffffffffffffffffffffffffff1673ffffffffffffffffffffffffffffffffffffffff16815260200190815260200160002060008d815260200190815260200160002054612b3b90919063ffffffff16565b600360008988815481106117ba576117b96135dc565b5b906000526020600020906006020160010160009054906101000a900473ffffffffffffffffffffffffffffffffffffffff1673ffffffffffffffffffffffffffffffffffffffff1673ffffffffffffffffffffffffffffffffffffffff16815260200190815260200160002060008c81526020019081526020016000208190555061190281600360008a8981548110611856576118556135dc565b5b906000526020600020906006020160010160009054906101000a900473ffffffffffffffffffffffffffffffffffffffff1673ffffffffffffffffffffffffffffffffffffffff1673ffffffffffffffffffffffffffffffffffffffff16815260200190815260200160002060007f4554480000000000000000000000000000000000000000000000000000000000815260200190815260200160002054612a4390919063ffffffff16565b60036000898881548110611919576119186135dc565b5b906000526020600020906006020160010160009054906101000a900473ffffffffffffffffffffffffffffffffffffffff1673ffffffffffffffffffffffffffffffffffffffff1673ffffffffffffffffffffffffffffffffffffffff16815260200190815260200160002060007f4554480000000000000000000000000000000000000000000000000000000000815260200190815260200160002081905550611e59565b6001808111156119d2576119d161357e565b5b8b60018111156119e5576119e461357e565b5b1415611e5857611a4e82600360003373ffffffffffffffffffffffffffffffffffffffff1673ffffffffffffffffffffffffffffffffffffffff16815260200190815260200160002060008d815260200190815260200160002054612b3b90919063ffffffff16565b600360003373ffffffffffffffffffffffffffffffffffffffff1673ffffffffffffffffffffffffffffffffffffffff16815260200190815260200160002060008c815260200190815260200160002081905550611b2581600360003373ffffffffffffffffffffffffffffffffffffffff1673ffffffffffffffffffffffffffffffffffffffff16815260200190815260200160002060007f4554480000000000000000000000000000000000000000000000000000000000815260200190815260200160002054612a4390919063ffffffff16565b600360003373ffffffffffffffffffffffffffffffffffffffff1673ffffffffffffffffffffffffffffffffffffffff16815260200190815260200160002060007f4554480000000000000000000000000000000000000000000000000000000000815260200190815260200160002081905550611c4082600360008a8981548110611bb457611bb36135dc565b5b906000526020600020906006020160010160009054906101000a900473ffffffffffffffffffffffffffffffffffffffff1673ffffffffffffffffffffffffffffffffffffffff1673ffffffffffffffffffffffffffffffffffffffff16815260200190815260200160002060008d815260200190815260200160002054612a4390919063ffffffff16565b60036000898881548110611c5757611c566135dc565b5b906000526020600020906006020160010160009054906101000a900473ffffffffffffffffffffffffffffffffffffffff1673ffffffffffffffffffffffffffffffffffffffff1673ffffffffffffffffffffffffffffffffffffffff16815260200190815260200160002060008c815260200190815260200160002081905550611d9f81600360008a8981548110611cf357611cf26135dc565b5b906000526020600020906006020160010160009054906101000a900473ffffffffffffffffffffffffffffffffffffffff1673ffffffffffffffffffffffffffffffffffffffff1673ffffffffffffffffffffffffffffffffffffffff16815260200190815260200160002060007f4554480000000000000000000000000000000000000000000000000000000000815260200190815260200160002054612b3b90919063ffffffff16565b60036000898881548110611db657611db56135dc565b5b906000526020600020906006020160010160009054906101000a900473ffffffffffffffffffffffffffffffffffffffff1673ffffffffffffffffffffffffffffffffffffffff1673ffffffffffffffffffffffffffffffffffffffff16815260200190815260200160002060007f45544800000000000000000000000000000000000000000000000000000000008152602001908152602001600020819055505b5b505050508080611e6890613506565b915050611352565b505b60008280549050118015611ecf575081600081548110611e9557611e946135dc565b5b90600052602060002090600602016003015482600081548110611ebb57611eba6135dc565b5b906000526020600020906006020160050154145b156120bc5760005b60018380549050611ee89190613431565b8110156120295782600182611efd9190613381565b81548110611f0e57611f0d6135dc565b5b9060005260206000209060060201838281548110611f2f57611f2e6135dc565b5b9060005260206000209060060201600082015481600001556001820160009054906101000a900473ffffffffffffffffffffffffffffffffffffffff168160010160006101000a81548173ffffffffffffffffffffffffffffffffffffffff021916908373ffffffffffffffffffffffffffffffffffffffff1602179055506001820160149054906101000a900460ff168160010160146101000a81548160ff02191690836001811115611fe657611fe561357e565b5b021790555060028201548160020155600382015481600301556004820154816004015560058201548160050155905050808061202190613506565b915050611ed7565b508180548061203b5761203a6135ad565b5b60019003818190600052602060002090600602016000808201600090556001820160006101000a81549073ffffffffffffffffffffffffffffffffffffffff02191690556001820160146101000a81549060ff0219169055600282016000905560038201600090556004820160009055600582016000905550509055611e72565b505050505050565b600281815481106120d457600080fd5b906000526020600020016000915090505481565b80600073ffffffffffffffffffffffffffffffffffffffff166001600083815260200190815260200160002060010160009054906101000a900473ffffffffffffffffffffffffffffffffffffffff1673ffffffffffffffffffffffffffffffffffffffff16141561218f576040517f08c379a0000000000000000000000000000000000000000000000000000000008152600401612186906131e2565b60405180910390fd5b82600360003373ffffffffffffffffffffffffffffffffffffffff1673ffffffffffffffffffffffffffffffffffffffff1681526020019081526020016000206000848152602001908152602001600020541015612222576040517f08c379a000000000000000000000000000000000000000000000000000000000815260040161221990613262565b60405180910390fd5b61228583600360003373ffffffffffffffffffffffffffffffffffffffff1673ffffffffffffffffffffffffffffffffffffffff168152602001908152602001600020600085815260200190815260200160002054612b3b90919063ffffffff16565b600360003373ffffffffffffffffffffffffffffffffffffffff1673ffffffffffffffffffffffffffffffffffffffff1681526020019081526020016000206000848152602001908152602001600020819055506001600083815260200190815260200160002060010160009054906101000a900473ffffffffffffffffffffffffffffffffffffffff1673ffffffffffffffffffffffffffffffffffffffff1663a9059cbb33856040518363ffffffff1660e01b815260040161234a929190613153565b602060405180830381600087803b15801561236457600080fd5b505af1158015612378573d6000803e3d6000fd5b505050506040513d601f19601f8201168201806040525081019061239c9190612c27565b50505050565b60606005600084815260200190815260200160002060008360018111156123cc576123cb61357e565b5b8152602001908152602001600020805480602002602001604051908101604052809291908181526020016000905b828210156124ef57838290600052602060002090600602016040518060e0016040529081600082015481526020016001820160009054906101000a900473ffffffffffffffffffffffffffffffffffffffff1673ffffffffffffffffffffffffffffffffffffffff1673ffffffffffffffffffffffffffffffffffffffff1681526020016001820160149054906101000a900460ff1660018111156124a2576124a161357e565b5b60018111156124b4576124b361357e565b5b8152602001600282015481526020016003820154815260200160048201548152602001600582015481525050815260200190600101906123fa565b50505050905092915050565b80600360003373ffffffffffffffffffffffffffffffffffffffff1673ffffffffffffffffffffffffffffffffffffffff16815260200190815260200160002060007f4554480000000000000000000000000000000000000000000000000000000000815260200190815260200160002054116125ad576040517f08c379a00000000000000000000000000000000000000000000000000000000081526004016125a490613202565b60405180910390fd5b61263081600360003373ffffffffffffffffffffffffffffffffffffffff1673ffffffffffffffffffffffffffffffffffffffff16815260200190815260200160002060007f4554480000000000000000000000000000000000000000000000000000000000815260200190815260200160002054612b3b90919063ffffffff16565b600360003373ffffffffffffffffffffffffffffffffffffffff1673ffffffffffffffffffffffffffffffffffffffff16815260200190815260200160002060007f4554480000000000000000000000000000000000000000000000000000000000815260200190815260200160002060008282546126af9190613431565b925050819055503373ffffffffffffffffffffffffffffffffffffffff16816040516126da906130ec565b60006040518083038185875af1925050503d8060008114612717576040519150601f19603f3d011682016040523d82523d6000602084013e61271c565b606091505b50505050565b80600073ffffffffffffffffffffffffffffffffffffffff166001600083815260200190815260200160002060010160009054906101000a900473ffffffffffffffffffffffffffffffffffffffff1673ffffffffffffffffffffffffffffffffffffffff1614156127c9576040517f08c379a00000000000000000000000000000000000000000000000000000000081526004016127c0906131e2565b60405180910390fd5b6001600083815260200190815260200160002060010160009054906101000a900473ffffffffffffffffffffffffffffffffffffffff1673ffffffffffffffffffffffffffffffffffffffff166323b872dd3330866040518463ffffffff1660e01b815260040161283c9392919061311c565b602060405180830381600087803b15801561285657600080fd5b505af115801561286a573d6000803e3d6000fd5b505050506040513d601f19601f8201168201806040525081019061288e9190612c27565b506128f283600360003373ffffffffffffffffffffffffffffffffffffffff1673ffffffffffffffffffffffffffffffffffffffff168152602001908152602001600020600085815260200190815260200160002054612a4390919063ffffffff16565b600360003373ffffffffffffffffffffffffffffffffffffffff1673ffffffffffffffffffffffffffffffffffffffff168152602001908152602001600020600084815260200190815260200160002081905550505050565b612953612a6f565b73ffffffffffffffffffffffffffffffffffffffff166129716110c6565b73ffffffffffffffffffffffffffffffffffffffff16146129c7576040517f08c379a00000000000000000000000000000000000000000000000000000000081526004016129be90613242565b60405180910390fd5b600073ffffffffffffffffffffffffffffffffffffffff168173ffffffffffffffffffffffffffffffffffffffff161415612a37576040517f08c379a0000000000000000000000000000000000000000000000000000000008152600401612a2e90613222565b60405180910390fd5b612a4081612a77565b50565b60008183612a519190613381565b905092915050565b60008183612a6791906133d7565b905092915050565b600033905090565b60008060009054906101000a900473ffffffffffffffffffffffffffffffffffffffff169050816000806101000a81548173ffffffffffffffffffffffffffffffffffffffff021916908373ffffffffffffffffffffffffffffffffffffffff1602179055508173ffffffffffffffffffffffffffffffffffffffff168173ffffffffffffffffffffffffffffffffffffffff167f8be0079c531659141344cd1fd0a4f28419497f9722a3daafe3b4186f6b6457e060405160405180910390a35050565b60008183612b499190613431565b905092915050565b600081359050612b6081613743565b92915050565b600081519050612b758161375a565b92915050565b600081359050612b8a81613771565b92915050565b600081359050612b9f81613788565b92915050565b600081359050612bb481613798565b92915050565b600060208284031215612bd057612bcf61360b565b5b6000612bde84828501612b51565b91505092915050565b60008060408385031215612bfe57612bfd61360b565b5b6000612c0c85828601612b51565b9250506020612c1d85828601612b7b565b9150509250929050565b600060208284031215612c3d57612c3c61360b565b5b6000612c4b84828501612b66565b91505092915050565b600060208284031215612c6a57612c6961360b565b5b6000612c7884828501612b7b565b91505092915050565b60008060408385031215612c9857612c9761360b565b5b6000612ca685828601612b7b565b9250506020612cb785828601612b51565b9150509250929050565b60008060408385031215612cd857612cd761360b565b5b6000612ce685828601612b7b565b9250506020612cf785828601612b90565b9150509250929050565b600080600060608486031215612d1a57612d1961360b565b5b6000612d2886828701612b7b565b9350506020612d3986828701612ba5565b9250506040612d4a86828701612ba5565b9150509250925092565b600080600060608486031215612d6d57612d6c61360b565b5b6000612d7b86828701612b90565b9350506020612d8c86828701612b7b565b9250506040612d9d86828701612ba5565b9150509250925092565b60008060008060808587031215612dc157612dc061360b565b5b6000612dcf87828801612b90565b9450506020612de087828801612b7b565b9350506040612df187828801612ba5565b9250506060612e0287828801612ba5565b91505092959194509250565b600060208284031215612e2457612e2361360b565b5b6000612e3284828501612ba5565b91505092915050565b60008060408385031215612e5257612e5161360b565b5b6000612e6085828601612ba5565b9250506020612e7185828601612b7b565b9150509250929050565b6000612e878383613040565b60e08301905092915050565b612e9c81613465565b82525050565b612eab81613465565b82525050565b6000612ebc8261333c565b612ec68185613354565b9350612ed18361332c565b8060005b83811015612f02578151612ee98882612e7b565b9750612ef483613347565b925050600181019050612ed5565b5085935050505092915050565b612f1881613483565b82525050565b612f2781613483565b82525050565b612f36816134ca565b82525050565b612f45816134ca565b82525050565b6000612f58601383613370565b9150612f6382613610565b602082019050919050565b6000612f7b601683613370565b9150612f8682613639565b602082019050919050565b6000612f9e602683613370565b9150612fa982613662565b604082019050919050565b6000612fc1602083613370565b9150612fcc826136b1565b602082019050919050565b6000612fe4601483613370565b9150612fef826136da565b602082019050919050565b6000613007600083613365565b915061301282613703565b600082019050919050565b600061302a601283613370565b915061303582613706565b602082019050919050565b60e08201600082015161305660008501826130ce565b5060208201516130696020850182612e93565b50604082015161307c6040850182612f2d565b50606082015161308f6060850182612f0f565b5060808201516130a260808501826130ce565b5060a08201516130b560a08501826130ce565b5060c08201516130c860c08501826130ce565b50505050565b6130d7816134c0565b82525050565b6130e6816134c0565b82525050565b60006130f782612ffa565b9150819050919050565b60006020820190506131166000830184612ea2565b92915050565b60006060820190506131316000830186612ea2565b61313e6020830185612ea2565b61314b60408301846130dd565b949350505050565b60006040820190506131686000830185612ea2565b61317560208301846130dd565b9392505050565b600060208201905081810360008301526131968184612eb1565b905092915050565b60006020820190506131b36000830184612f1e565b92915050565b60006040820190506131ce6000830185612f1e565b6131db6020830184612ea2565b9392505050565b600060208201905081810360008301526131fb81612f4b565b9050919050565b6000602082019050818103600083015261321b81612f6e565b9050919050565b6000602082019050818103600083015261323b81612f91565b9050919050565b6000602082019050818103600083015261325b81612fb4565b9050919050565b6000602082019050818103600083015261327b81612fd7565b9050919050565b6000602082019050818103600083015261329b8161301d565b9050919050565b60006020820190506132b760008301846130dd565b92915050565b600060e0820190506132d2600083018a6130dd565b6132df6020830189612ea2565b6132ec6040830188612f3c565b6132f96060830187612f1e565b61330660808301866130dd565b61331360a08301856130dd565b61332060c08301846130dd565b98975050505050505050565b6000819050602082019050919050565b600081519050919050565b6000602082019050919050565b600082825260208201905092915050565b600081905092915050565b600082825260208201905092915050565b600061338c826134c0565b9150613397836134c0565b9250827fffffffffffffffffffffffffffffffffffffffffffffffffffffffffffffffff038211156133cc576133cb61354f565b5b828201905092915050565b60006133e2826134c0565b91506133ed836134c0565b9250817fffffffffffffffffffffffffffffffffffffffffffffffffffffffffffffffff04831182151516156134265761342561354f565b5b828202905092915050565b600061343c826134c0565b9150613447836134c0565b92508282101561345a5761345961354f565b5b828203905092915050565b6000613470826134a0565b9050919050565b60008115159050919050565b6000819050919050565b600081905061349b8261372f565b919050565b600073ffffffffffffffffffffffffffffffffffffffff82169050919050565b6000819050919050565b60006134d58261348d565b9050919050565b60006134e7826134c0565b915060008214156134fb576134fa61354f565b5b600182039050919050565b6000613511826134c0565b91507fffffffffffffffffffffffffffffffffffffffffffffffffffffffffffffffff8214156135445761354361354f565b5b600182019050919050565b7f4e487b7100000000000000000000000000000000000000000000000000000000600052601160045260246000fd5b7f4e487b7100000000000000000000000000000000000000000000000000000000600052602160045260246000fd5b7f4e487b7100000000000000000000000000000000000000000000000000000000600052603160045260246000fd5b7f4e487b7100000000000000000000000000000000000000000000000000000000600052603260045260246000fd5b600080fd5b7f546f6b656e20646f65736e277420657869737400000000000000000000000000600082015250565b7f6e6f7420656e6f756768204554482062616c616e636500000000000000000000600082015250565b7f4f776e61626c653a206e6577206f776e657220697320746865207a65726f206160008201527f6464726573730000000000000000000000000000000000000000000000000000602082015250565b7f4f776e61626c653a2063616c6c6572206973206e6f7420746865206f776e6572600082015250565b7f696e73756666696369656e742062616c616e6365000000000000000000000000600082015250565b50565b7f696e73756666696369656e742066756e64730000000000000000000000000000600082015250565b600281106137405761373f61357e565b5b50565b61374c81613465565b811461375757600080fd5b50565b61376381613477565b811461376e57600080fd5b50565b61377a81613483565b811461378557600080fd5b50565b6002811061379557600080fd5b50565b6137a1816134c0565b81146137ac57600080fd5b5056fea264697066735822122041168c6e4b83f0d32a380435f2bc32c998fb1253f3ace4d900c43ce75a73f85364736f6c63430008060033",
  "immutableReferences": {},
  "source": "\npragma solidity ^0.8.0;\n\nimport \"./wallet.sol\";\n\ncontract Dex is Wallet {\n\n    using SafeMath for uint256;\n\n    enum Side {\n        BUY,\n        SELL\n    }\n\n    struct Order {\n        uint id;\n        address trader;\n        Side side;\n        bytes32 ticker;\n        uint amount;\n        uint price;\n        uint filled;\n    }\n\n    uint nextOrderId = 0;\n\n    mapping(bytes32 => mapping(uint => Order[])) public orderBook; \n\n\n    function getOrderBook(bytes32 ticker, Side side) view public returns (Order[] memory){\n        return orderBook[ticker][uint(side)];\n    }\n \n    function createLimitOrder(Side side, bytes32 ticker, uint amount, uint price) public {\n        if(side == Side.BUY){\n            // check if user has enough ETH for buy order\n            require(balances[msg.sender][\"ETH\"] >= amount.mul(price), \"insufficient funds\");\n        }\n        else if(side == Side.SELL){\n            // check if user has enough tokens for sell order\n            require(balances[msg.sender][ticker] >= amount, \"insufficient funds\");\n        }\n        \n            // this creates the order object / loads the orderbook depending on side (buy or sell)\n            Order[] storage orders = orderBook[ticker][uint(side)];\n            // this creates the new order\n            orders.push(\n                Order(nextOrderId, msg.sender, side, ticker, amount, price, 0)\n                );\n            \n            // bubble sort, start iteration at the end of the array\n            uint i = orders.length > 0 ? orders.length -1 : 0;\n\n            if(side == Side.BUY){\n                while (i > 0){\n                    if(orders[i - 1].price > orders[i].price) {\n                        break;\n                    }\n                    // using existing values and their relative positions to swap order \n                    Order memory orderToMove = orders[i - 1];\n                    orders[i - 1] = orders[i];\n                    orders[i] = orderToMove;\n                    i--;\n                }\n            }\n            else if(side == Side.SELL){\n                while (i > 0){\n                    if(orders[i - 1].price < orders[i].price) {\n                        break;\n                    }\n                    Order memory orderToMove = orders[i - 1];\n                    orders[i - 1] = orders[i];\n                    orders[i] = orderToMove;\n                    i--;\n                }\n            }\n\n            nextOrderId++;        \n    }\n\n\n    function createMarketOrder(Side side, bytes32 ticker, uint amount) public {\n        if(side == Side.SELL){\n            require(balances[msg.sender][ticker] >= amount, \"insufficient balance\");\n        }\n\n        uint orderBookSide;\n        if(side == Side.BUY){\n            orderBookSide = 1;\n        }\n        else{\n            orderBookSide = 0;\n        }\n\n        Order[] storage orders = orderBook[ticker][orderBookSide];\n\n        uint totalFilled = 0;\n\n        for (uint i = 0; i < orders.length && totalFilled < amount; i++){\n\n            uint leftToFill = amount.sub(totalFilled); // 100\n            uint availableToFill = orders[i].amount.sub(orders[i].filled); // 20\n            uint filled = 0;\n            if(availableToFill > leftToFill){\n                filled = leftToFill; // Fill the entire market order\n            }\n            else {\n                filled = availableToFill; // Fill as much as is available in order[i]\n            }\n\n            totalFilled = totalFilled.add(filled);\n            orders[i].filled = orders[i].filled.add(filled);\n            uint cost = filled.mul(orders[i].price);\n           \n\n            if(side == Side.BUY){\n                // Verify that the buyer has enough ETH to cover trade\n                require(balances[msg.sender][\"ETH\"] >= cost);\n                // msg.sender is the buyer\n                // reduce buyers' ETH-, increase buyer's token balances\n                balances[msg.sender][\"ETH\"] = balances[msg.sender][\"ETH\"].sub(cost);\n                balances[msg.sender][ticker] = balances[msg.sender][ticker].add(filled);\n                // reduce sellers' token-, increase sellers' ETH balance\n                balances[orders[i].trader][ticker] = balances[orders[i].trader][ticker].sub(filled);\n                balances[orders[i].trader][\"ETH\"] = balances[orders[i].trader][\"ETH\"].add(cost);\n            }\n            else if(side == Side.SELL){\n                // msg.sender is the seller\n                // increase sellers' ETH-, reduce seller's token balances\n                balances[msg.sender][ticker] = balances[msg.sender][ticker].sub(filled);\n                balances[msg.sender][\"ETH\"] = balances[msg.sender][\"ETH\"].add(cost);\n                // reduce buyers' ETH-, increase buyer's token balances\n                balances[orders[i].trader][ticker] = balances[orders[i].trader][ticker].add(filled);\n                balances[orders[i].trader][\"ETH\"] = balances[orders[i].trader][\"ETH\"].sub(cost);\n            }   \n        }   \n\n            // remove all 100% filled orders from the orderbook\n            while(orders.length > 0 && orders[0].filled == orders[0].amount){\n                // remove top element in the orders array by overwriting every element with the next element in the order list\n                for(uint i = 0; i < orders.length - 1; i++){\n                    orders[i] = orders[i + 1];\n                }\n                orders.pop();\n            }\n    }\n} \n\n",
  "sourcePath": "/Users/imac/Nextcloud/Documents/GitHub/DEX/contracts/dex.sol",
  "compiler": {
    "name": "solc",
    "version": "0.8.6+commit.11564f7e.Emscripten.clang"
  },
  "schemaVersion": "3.3.1",
  "updatedAt": "2021-08-05T09:11:21.640Z",
  "networkType": "ethereum",
  "devdoc": {
    "kind": "dev",
    "methods": {
      "owner()": {
        "details": "Returns the address of the current owner."
      },
      "renounceOwnership()": {
        "details": "Leaves the contract without owner. It will not be possible to call `onlyOwner` functions anymore. Can only be called by the current owner. NOTE: Renouncing ownership will leave the contract without an owner, thereby removing any functionality that is only available to the owner."
      },
      "transferOwnership(address)": {
        "details": "Transfers ownership of the contract to a new account (`newOwner`). Can only be called by the current owner."
      }
    },
    "version": 1
  },
  "userdoc": {
    "kind": "user",
    "methods": {},
    "version": 1
  }
}