{
  "contractName": "Wallet",
  "abi": [
    {
      "inputs": [
        {
          "internalType": "address",
          "name": "",
          "type": "address"
        },
        {
          "internalType": "bytes32",
          "name": "",
          "type": "bytes32"
        }
      ],
      "name": "balances",
      "outputs": [
        {
          "internalType": "uint256",
          "name": "",
          "type": "uint256"
        }
      ],
      "stateMutability": "view",
      "type": "function"
    },
    {
      "inputs": [
        {
          "internalType": "uint256",
          "name": "",
          "type": "uint256"
        }
      ],
      "name": "tokenList",
      "outputs": [
        {
          "internalType": "bytes32",
          "name": "",
          "type": "bytes32"
        }
      ],
      "stateMutability": "view",
      "type": "function"
    },
    {
      "inputs": [
        {
          "internalType": "bytes32",
          "name": "",
          "type": "bytes32"
        }
      ],
      "name": "tokenMapping",
      "outputs": [
        {
          "internalType": "bytes32",
          "name": "ticker",
          "type": "bytes32"
        },
        {
          "internalType": "address",
          "name": "tokenAddress",
          "type": "address"
        }
      ],
      "stateMutability": "view",
      "type": "function"
    },
    {
      "inputs": [
        {
          "internalType": "bytes32",
          "name": "ticker",
          "type": "bytes32"
        },
        {
          "internalType": "address",
          "name": "tokenAddress",
          "type": "address"
        }
      ],
      "name": "addToken",
      "outputs": [],
      "stateMutability": "nonpayable",
      "type": "function"
    },
    {
      "inputs": [
        {
          "internalType": "uint256",
          "name": "amount",
          "type": "uint256"
        },
        {
          "internalType": "bytes32",
          "name": "ticker",
          "type": "bytes32"
        }
      ],
      "name": "deposit",
      "outputs": [],
      "stateMutability": "nonpayable",
      "type": "function"
    },
    {
      "inputs": [
        {
          "internalType": "uint256",
          "name": "amount",
          "type": "uint256"
        },
        {
          "internalType": "bytes32",
          "name": "ticker",
          "type": "bytes32"
        }
      ],
      "name": "withdraw",
      "outputs": [],
      "stateMutability": "nonpayable",
      "type": "function"
    }
  ],
  "bytecode": "0x608060405234801561001057600080fd5b506109ec806100206000396000f3fe608060405234801561001057600080fd5b50600436106100625760003560e01c80631f14df6914610067578063667cb4ba146100975780639776aacf146100c85780639ead7222146100e4578063a8d2021a14610114578063c9630cb014610130575b600080fd5b610081600480360381019061007c91906105bb565b61014c565b60405161008e9190610822565b60405180910390f35b6100b160048036038101906100ac9190610628565b610171565b6040516100bf9291906107b9565b60405180910390f35b6100e260048036038101906100dd9190610655565b6101b5565b005b6100fe60048036038101906100f99190610695565b610273565b60405161010b919061079e565b60405180910390f35b61012e600480360381019061012991906106c2565b610297565b005b61014a600480360381019061014591906106c2565b61054d565b005b6002602052816000526040600020602052806000526040600020600091509150505481565b60006020528060005260406000206000915090508060000154908060010160009054906101000a900473ffffffffffffffffffffffffffffffffffffffff16905082565b60405180604001604052808381526020018273ffffffffffffffffffffffffffffffffffffffff168152506000808481526020019081526020016000206000820151816000015560208201518160010160006101000a81548173ffffffffffffffffffffffffffffffffffffffff021916908373ffffffffffffffffffffffffffffffffffffffff16021790555090505060018290806001815401808255809150506001900390600052602060002001600090919091909150555050565b6001818154811061028357600080fd5b906000526020600020016000915090505481565b600073ffffffffffffffffffffffffffffffffffffffff1660008083815260200190815260200160002060010160009054906101000a900473ffffffffffffffffffffffffffffffffffffffff1673ffffffffffffffffffffffffffffffffffffffff16141561033c576040517f08c379a0000000000000000000000000000000000000000000000000000000008152600401610333906107e2565b60405180910390fd5b81600260003373ffffffffffffffffffffffffffffffffffffffff1673ffffffffffffffffffffffffffffffffffffffff16815260200190815260200160002060008381526020019081526020016000205410156103cf576040517f08c379a00000000000000000000000000000000000000000000000000000000081526004016103c690610802565b60405180910390fd5b61043282600260003373ffffffffffffffffffffffffffffffffffffffff1673ffffffffffffffffffffffffffffffffffffffff16815260200190815260200160002060008481526020019081526020016000205461055190919063ffffffff16565b600260003373ffffffffffffffffffffffffffffffffffffffff1673ffffffffffffffffffffffffffffffffffffffff16815260200190815260200160002060008381526020019081526020016000208190555060008082815260200190815260200160002060010160009054906101000a900473ffffffffffffffffffffffffffffffffffffffff1673ffffffffffffffffffffffffffffffffffffffff1663a9059cbb33846040518363ffffffff1660e01b81526004016104f6929190610775565b602060405180830381600087803b15801561051057600080fd5b505af1158015610524573d6000803e3d6000fd5b505050506040513d601f19601f8201168201806040525081019061054891906105fb565b505050565b5050565b6000818361055f919061084e565b905092915050565b6000813590506105768161095a565b92915050565b60008151905061058b81610971565b92915050565b6000813590506105a081610988565b92915050565b6000813590506105b58161099f565b92915050565b600080604083850312156105d2576105d1610903565b5b60006105e085828601610567565b92505060206105f185828601610591565b9150509250929050565b60006020828403121561061157610610610903565b5b600061061f8482850161057c565b91505092915050565b60006020828403121561063e5761063d610903565b5b600061064c84828501610591565b91505092915050565b6000806040838503121561066c5761066b610903565b5b600061067a85828601610591565b925050602061068b85828601610567565b9150509250929050565b6000602082840312156106ab576106aa610903565b5b60006106b9848285016105a6565b91505092915050565b600080604083850312156106d9576106d8610903565b5b60006106e7858286016105a6565b92505060206106f885828601610591565b9150509250929050565b61070b81610882565b82525050565b61071a816108a0565b82525050565b600061072d60138361083d565b915061073882610908565b602082019050919050565b600061075060148361083d565b915061075b82610931565b602082019050919050565b61076f816108ca565b82525050565b600060408201905061078a6000830185610702565b6107976020830184610766565b9392505050565b60006020820190506107b36000830184610711565b92915050565b60006040820190506107ce6000830185610711565b6107db6020830184610702565b9392505050565b600060208201905081810360008301526107fb81610720565b9050919050565b6000602082019050818103600083015261081b81610743565b9050919050565b60006020820190506108376000830184610766565b92915050565b600082825260208201905092915050565b6000610859826108ca565b9150610864836108ca565b925082821015610877576108766108d4565b5b828203905092915050565b600061088d826108aa565b9050919050565b60008115159050919050565b6000819050919050565b600073ffffffffffffffffffffffffffffffffffffffff82169050919050565b6000819050919050565b7f4e487b7100000000000000000000000000000000000000000000000000000000600052601160045260246000fd5b600080fd5b7f746f6b656e20646f65736e277420657869737400000000000000000000000000600082015250565b7f696e73756666696369656e742062616c616e6365000000000000000000000000600082015250565b61096381610882565b811461096e57600080fd5b50565b61097a81610894565b811461098557600080fd5b50565b610991816108a0565b811461099c57600080fd5b50565b6109a8816108ca565b81146109b357600080fd5b5056fea2646970667358221220e0e7188f29a11af3fdb4dbc5d174e71cec4c9afa420339ab17c318525ea8fd6a64736f6c63430008060033",
  "immutableReferences": {},
  "source": "// SPDX-License-Identifier: SPDX-License\n\npragma solidity ^0.8.0;\n\nimport \"../node_modules/@openzeppelin/contracts/token/ERC20/IERC20.sol\";\nimport \"../node_modules/@openzeppelin/contracts/utils/math/SafeMath.sol\";\n\ncontract Wallet {\n    using SafeMath for uint256;\n\n    struct Token {\n        bytes32 ticker;\n        address tokenAddress;\n    }\n\n    mapping(bytes32 => Token) public tokenMapping;\n    bytes32[] public tokenList;\n\n\n    mapping(address => mapping(bytes32 => uint256)) public balances;\n\n    function addToken(bytes32 ticker, address tokenAddress) external {\n        tokenMapping[ticker] = Token(ticker, tokenAddress);\n        tokenList.push(ticker);\n    }\n\n    function deposit(uint amount, bytes32 ticker) external {\n\n    }\n\n    function withdraw(uint amount, bytes32 ticker) external {\n        require(tokenMapping[ticker].tokenAddress != address(0), \"token doesn't exist\");\n        require(balances[msg.sender][ticker] >= amount, \"insufficient balance\");\n\n        balances[msg.sender][ticker] = balances[msg.sender][ticker].sub(amount);\n        IERC20(tokenMapping[ticker].tokenAddress).transfer(msg.sender, amount);\n    }\n\n}",
  "sourcePath": "/Users/imac/Nextcloud/Documents/GitHub/DEX/contracts/wallet.sol",
  "compiler": {
    "name": "solc",
    "version": "0.8.6+commit.11564f7e.Emscripten.clang"
  },
  "schemaVersion": "3.3.1",
  "updatedAt": "2021-07-08T08:47:02.999Z",
  "devdoc": {
    "kind": "dev",
    "methods": {},
    "version": 1
  },
  "userdoc": {
    "kind": "user",
    "methods": {},
    "version": 1
  }
}